{
  "_format": "hh-sol-artifact-1",
  "contractName": "TrackingOracle",
  "sourceName": "contracts/TrackingOracle.sol",
  "abi": [
    {
      "inputs": [],
      "stateMutability": "payable",
      "type": "constructor"
    },
    {
      "anonymous": false,
      "inputs": [
        {
          "indexed": false,
          "internalType": "string",
          "name": "description",
          "type": "string"
        }
      ],
      "name": "ProvableQueryCalled",
      "type": "event"
    },
    {
      "anonymous": false,
      "inputs": [
        {
          "indexed": false,
          "internalType": "string",
          "name": "price",
          "type": "string"
        }
      ],
      "name": "ValueUpdated",
      "type": "event"
    },
    {
      "inputs": [],
      "name": "BTC_USD",
      "outputs": [
        {
          "internalType": "string",
          "name": "",
          "type": "string"
        }
      ],
      "stateMutability": "view",
      "type": "function"
    },
    {
      "inputs": [],
      "name": "FUEL_Price",
      "outputs": [
        {
          "internalType": "string",
          "name": "",
          "type": "string"
        }
      ],
      "stateMutability": "view",
      "type": "function"
    },
    {
      "inputs": [
        {
          "internalType": "bytes32",
          "name": "myid",
          "type": "bytes32"
        },
        {
          "internalType": "string",
          "name": "result",
          "type": "string"
        }
      ],
      "name": "__callback",
      "outputs": [],
      "stateMutability": "nonpayable",
      "type": "function"
    },
    {
      "inputs": [
        {
          "internalType": "string",
          "name": "updateType",
          "type": "string"
        }
      ],
      "name": "updatePrice",
      "outputs": [],
      "stateMutability": "payable",
      "type": "function"
    }
  ],
  "bytecode": "0x608060405233600960006101000a81548173ffffffffffffffffffffffffffffffffffffffff021916908373ffffffffffffffffffffffffffffffffffffffff1602179055506121fc806100546000396000f3fe60806040526004361061003f5760003560e01c806303ab7892146100445780630dc329261461006f57806327dc297e1461008b578063f4530cf9146100b4575b600080fd5b34801561005057600080fd5b506100596100df565b604051610066919061179f565b60405180910390f35b6100896004803603810190610084919061190a565b61016d565b005b34801561009757600080fd5b506100b260048036038101906100ad9190611989565b6103fe565b005b3480156100c057600080fd5b506100c96104b1565b6040516100d6919061179f565b60405180910390f35b600780546100ec90611a14565b80601f016020809104026020016040519081016040528092919081815260200182805461011890611a14565b80156101655780601f1061013a57610100808354040283529160200191610165565b820191906000526020600020905b81548152906001019060200180831161014857829003601f168201915b505050505081565b600960009054906101000a900473ffffffffffffffffffffffffffffffffffffffff1673ffffffffffffffffffffffffffffffffffffffff163373ffffffffffffffffffffffffffffffffffffffff16146101fd576040517f08c379a00000000000000000000000000000000000000000000000000000000081526004016101f490611ab7565b60405180910390fd5b4761023c6040518060400160405280600381526020017f55524c000000000000000000000000000000000000000000000000000000000081525061053f565b111561027c577f40497adc6bc0a78d282f3b97e803cd930ebfbe64986bc635646001ff4a36690c60405161026f90611b6f565b60405180910390a16103fb565b7f40497adc6bc0a78d282f3b97e803cd930ebfbe64986bc635646001ff4a36690c6040516102a990611bdb565b60405180910390a16102f0816040518060400160405280600381526020017f4254430000000000000000000000000000000000000000000000000000000000815250610833565b156103575761034c6040518060400160405280600381526020017f55524c00000000000000000000000000000000000000000000000000000000008152506040518060800160405280606081526020016121676060913961088c565b6005819055506103fa565b610396816040518060400160405280600481526020017f4655454c00000000000000000000000000000000000000000000000000000000815250610833565b156103f9576103f26040518060400160405280600381526020017f55524c00000000000000000000000000000000000000000000000000000000008152506040518060800160405280604581526020016121226045913961088c565b6006819055505b5b5b50565b610406610c5f565b73ffffffffffffffffffffffffffffffffffffffff163373ffffffffffffffffffffffffffffffffffffffff161461043d57600080fd5b600554820361045b5780600790816104559190611db1565b50610476565b60065482036104755780600890816104739190611db1565b505b5b7f7a8341d5817fef0bb0340eb80f1ed61f0c9b82329ed4f90794061ca5d85eaf1b816040516104a5919061179f565b60405180910390a15050565b600880546104be90611a14565b80601f01602080910402602001604051908101604052809291908181526020018280546104ea90611a14565b80156105375780601f1061050c57610100808354040283529160200191610537565b820191906000526020600020905b81548152906001019060200180831161051a57829003601f168201915b505050505081565b60008073ffffffffffffffffffffffffffffffffffffffff16600160009054906101000a900473ffffffffffffffffffffffffffffffffffffffff1673ffffffffffffffffffffffffffffffffffffffff1614806105c7575060006105c5600160009054906101000a900473ffffffffffffffffffffffffffffffffffffffff16610f46565b145b156105d8576105d66000610f51565b505b600160009054906101000a900473ffffffffffffffffffffffffffffffffffffffff1673ffffffffffffffffffffffffffffffffffffffff166338cc48316040518163ffffffff1660e01b81526004016020604051808303816000875af1158015610647573d6000803e3d6000fd5b505050506040513d601f19601f8201168201806040525081019061066b9190611ee1565b73ffffffffffffffffffffffffffffffffffffffff1660008054906101000a900473ffffffffffffffffffffffffffffffffffffffff1673ffffffffffffffffffffffffffffffffffffffff161461079057600160009054906101000a900473ffffffffffffffffffffffffffffffffffffffff1673ffffffffffffffffffffffffffffffffffffffff166338cc48316040518163ffffffff1660e01b81526004016020604051808303816000875af115801561072c573d6000803e3d6000fd5b505050506040513d601f19601f820116820180604052508101906107509190611ee1565b6000806101000a81548173ffffffffffffffffffffffffffffffffffffffff021916908373ffffffffffffffffffffffffffffffffffffffff1602179055505b60008054906101000a900473ffffffffffffffffffffffffffffffffffffffff1673ffffffffffffffffffffffffffffffffffffffff1663524f3889836040518263ffffffff1660e01b81526004016107e9919061179f565b6020604051808303816000875af1158015610808573d6000803e3d6000fd5b505050506040513d601f19601f8201168201806040525081019061082c9190611f3a565b9050919050565b6000816040516020016108469190611fa3565b604051602081830303815290604052805190602001208360405160200161086d9190611fa3565b6040516020818303038152906040528051906020012014905092915050565b60008073ffffffffffffffffffffffffffffffffffffffff16600160009054906101000a900473ffffffffffffffffffffffffffffffffffffffff1673ffffffffffffffffffffffffffffffffffffffff16148061091457506000610912600160009054906101000a900473ffffffffffffffffffffffffffffffffffffffff16610f46565b145b15610925576109236000610f51565b505b600160009054906101000a900473ffffffffffffffffffffffffffffffffffffffff1673ffffffffffffffffffffffffffffffffffffffff166338cc48316040518163ffffffff1660e01b81526004016020604051808303816000875af1158015610994573d6000803e3d6000fd5b505050506040513d601f19601f820116820180604052508101906109b89190611ee1565b73ffffffffffffffffffffffffffffffffffffffff1660008054906101000a900473ffffffffffffffffffffffffffffffffffffffff1673ffffffffffffffffffffffffffffffffffffffff1614610add57600160009054906101000a900473ffffffffffffffffffffffffffffffffffffffff1673ffffffffffffffffffffffffffffffffffffffff166338cc48316040518163ffffffff1660e01b81526004016020604051808303816000875af1158015610a79573d6000803e3d6000fd5b505050506040513d601f19601f82011682018060405250810190610a9d9190611ee1565b6000806101000a81548173ffffffffffffffffffffffffffffffffffffffff021916908373ffffffffffffffffffffffffffffffffffffffff1602179055505b60008060009054906101000a900473ffffffffffffffffffffffffffffffffffffffff1673ffffffffffffffffffffffffffffffffffffffff1663524f3889856040518263ffffffff1660e01b8152600401610b39919061179f565b6020604051808303816000875af1158015610b58573d6000803e3d6000fd5b505050506040513d601f19601f82011682018060405250810190610b7c9190611f3a565b905062030d403a610b8d9190611fe9565b670de0b6b3a7640000610ba0919061202b565b811115610bb3576000801b915050610c59565b60008054906101000a900473ffffffffffffffffffffffffffffffffffffffff1673ffffffffffffffffffffffffffffffffffffffff1663adf59f9982600087876040518563ffffffff1660e01b8152600401610c129392919061209a565b60206040518083038185885af1158015610c30573d6000803e3d6000fd5b50505050506040513d601f19601f82011682018060405250810190610c5591906120f4565b9150505b92915050565b60008073ffffffffffffffffffffffffffffffffffffffff16600160009054906101000a900473ffffffffffffffffffffffffffffffffffffffff1673ffffffffffffffffffffffffffffffffffffffff161480610ce757506000610ce5600160009054906101000a900473ffffffffffffffffffffffffffffffffffffffff16610f46565b145b15610cf857610cf66000610f51565b505b600160009054906101000a900473ffffffffffffffffffffffffffffffffffffffff1673ffffffffffffffffffffffffffffffffffffffff166338cc48316040518163ffffffff1660e01b81526004016020604051808303816000875af1158015610d67573d6000803e3d6000fd5b505050506040513d601f19601f82011682018060405250810190610d8b9190611ee1565b73ffffffffffffffffffffffffffffffffffffffff1660008054906101000a900473ffffffffffffffffffffffffffffffffffffffff1673ffffffffffffffffffffffffffffffffffffffff1614610eb057600160009054906101000a900473ffffffffffffffffffffffffffffffffffffffff1673ffffffffffffffffffffffffffffffffffffffff166338cc48316040518163ffffffff1660e01b81526004016020604051808303816000875af1158015610e4c573d6000803e3d6000fd5b505050506040513d601f19601f82011682018060405250810190610e709190611ee1565b6000806101000a81548173ffffffffffffffffffffffffffffffffffffffff021916908373ffffffffffffffffffffffffffffffffffffffff1602179055505b60008054906101000a900473ffffffffffffffffffffffffffffffffffffffff1673ffffffffffffffffffffffffffffffffffffffff1663c281d19e6040518163ffffffff1660e01b81526004016020604051808303816000875af1158015610f1d573d6000803e3d6000fd5b505050506040513d601f19601f82011682018060405250810190610f419190611ee1565b905090565b6000813b9050919050565b6000610f5b610f62565b9050919050565b600080610f82731d3b2638a7cc9f2cb3d298a3da7a90b67e5506ed610f46565b111561102457731d3b2638a7cc9f2cb3d298a3da7a90b67e5506ed600160006101000a81548173ffffffffffffffffffffffffffffffffffffffff021916908373ffffffffffffffffffffffffffffffffffffffff16021790555061101b6040518060400160405280600b81526020017f6574685f6d61696e6e65740000000000000000000000000000000000000000008152506116fc565b600190506116f9565b600061104373c03a2615d5efaf5f49f60b7bb6583eaec212fdf1610f46565b11156110e55773c03a2615d5efaf5f49f60b7bb6583eaec212fdf1600160006101000a81548173ffffffffffffffffffffffffffffffffffffffff021916908373ffffffffffffffffffffffffffffffffffffffff1602179055506110dc6040518060400160405280600c81526020017f6574685f726f707374656e3300000000000000000000000000000000000000008152506116fc565b600190506116f9565b600061110473b7a07bcf2ba2f2703b24c0691b5278999c59ac7e610f46565b11156111a65773b7a07bcf2ba2f2703b24c0691b5278999c59ac7e600160006101000a81548173ffffffffffffffffffffffffffffffffffffffff021916908373ffffffffffffffffffffffffffffffffffffffff16021790555061119d6040518060400160405280600981526020017f6574685f6b6f76616e00000000000000000000000000000000000000000000008152506116fc565b600190506116f9565b60006111c573146500cfd35b22e4a392fe0adc06de1a1368ed48610f46565b11156112675773146500cfd35b22e4a392fe0adc06de1a1368ed48600160006101000a81548173ffffffffffffffffffffffffffffffffffffffff021916908373ffffffffffffffffffffffffffffffffffffffff16021790555061125e6040518060400160405280600b81526020017f6574685f72696e6b6562790000000000000000000000000000000000000000008152506116fc565b600190506116f9565b600061128673a2998efd205fb9d4b4963afb70778d6354ad3a41610f46565b11156113285773a2998efd205fb9d4b4963afb70778d6354ad3a41600160006101000a81548173ffffffffffffffffffffffffffffffffffffffff021916908373ffffffffffffffffffffffffffffffffffffffff16021790555061131f6040518060400160405280600a81526020017f6574685f676f65726c69000000000000000000000000000000000000000000008152506116fc565b600190506116f9565b60006113477390a0f94702c9630036fb9846b52bf31a1c991a84610f46565b11156113e9577390a0f94702c9630036fb9846b52bf31a1c991a84600160006101000a81548173ffffffffffffffffffffffffffffffffffffffff021916908373ffffffffffffffffffffffffffffffffffffffff1602179055506113e06040518060400160405280600b81526020017f6273635f6d61696e6e65740000000000000000000000000000000000000000008152506116fc565b600190506116f9565b600061140873816ec2af1b56183f82f8c05759e99fec3c3de609610f46565b11156114aa5773816ec2af1b56183f82f8c05759e99fec3c3de609600160006101000a81548173ffffffffffffffffffffffffffffffffffffffff021916908373ffffffffffffffffffffffffffffffffffffffff1602179055506114a16040518060400160405280600f81526020017f706f6c79676f6e5f6d61696e6e657400000000000000000000000000000000008152506116fc565b600190506116f9565b60006114c97314b31a1c66a9f3d18dfac2d123fe8ce5847b7f85610f46565b111561156b577314b31a1c66a9f3d18dfac2d123fe8ce5847b7f85600160006101000a81548173ffffffffffffffffffffffffffffffffffffffff021916908373ffffffffffffffffffffffffffffffffffffffff1602179055506115626040518060400160405280600f81526020017f7365706f6c69615f6d61696e6e657400000000000000000000000000000000008152506116fc565b600190506116f9565b600061158a736f485c8bf6fc43ea212e93bbf8ce046c7f1cb475610f46565b11156115ee57736f485c8bf6fc43ea212e93bbf8ce046c7f1cb475600160006101000a81548173ffffffffffffffffffffffffffffffffffffffff021916908373ffffffffffffffffffffffffffffffffffffffff160217905550600190506116f9565b600061160d7320e12a1f859b3feae5fb2a0a32c18f5a65555bbf610f46565b1115611671577320e12a1f859b3feae5fb2a0a32c18f5a65555bbf600160006101000a81548173ffffffffffffffffffffffffffffffffffffffff021916908373ffffffffffffffffffffffffffffffffffffffff160217905550600190506116f9565b60006116907351efaf4c8b3c9afbd5ab9f4bbc82784ab6ef8faa610f46565b11156116f4577351efaf4c8b3c9afbd5ab9f4bbc82784ab6ef8faa600160006101000a81548173ffffffffffffffffffffffffffffffffffffffff021916908373ffffffffffffffffffffffffffffffffffffffff160217905550600190506116f9565b600090505b90565b806002908161170b9190611db1565b5050565b600081519050919050565b600082825260208201905092915050565b60005b8381101561174957808201518184015260208101905061172e565b60008484015250505050565b6000601f19601f8301169050919050565b60006117718261170f565b61177b818561171a565b935061178b81856020860161172b565b61179481611755565b840191505092915050565b600060208201905081810360008301526117b98184611766565b905092915050565b6000604051905090565b600080fd5b600080fd5b600080fd5b600080fd5b7f4e487b7100000000000000000000000000000000000000000000000000000000600052604160045260246000fd5b61181782611755565b810181811067ffffffffffffffff82111715611836576118356117df565b5b80604052505050565b60006118496117c1565b9050611855828261180e565b919050565b600067ffffffffffffffff821115611875576118746117df565b5b61187e82611755565b9050602081019050919050565b82818337600083830152505050565b60006118ad6118a88461185a565b61183f565b9050828152602081018484840111156118c9576118c86117da565b5b6118d484828561188b565b509392505050565b600082601f8301126118f1576118f06117d5565b5b813561190184826020860161189a565b91505092915050565b6000602082840312156119205761191f6117cb565b5b600082013567ffffffffffffffff81111561193e5761193d6117d0565b5b61194a848285016118dc565b91505092915050565b6000819050919050565b61196681611953565b811461197157600080fd5b50565b6000813590506119838161195d565b92915050565b600080604083850312156119a05761199f6117cb565b5b60006119ae85828601611974565b925050602083013567ffffffffffffffff8111156119cf576119ce6117d0565b5b6119db858286016118dc565b9150509250929050565b7f4e487b7100000000000000000000000000000000000000000000000000000000600052602260045260246000fd5b60006002820490506001821680611a2c57607f821691505b602082108103611a3f57611a3e6119e5565b5b50919050565b7f4f6e6c7920746865206f776e6572206f66207468697320636f6e74726163742060008201527f63616e2063616c6c20746869732066756e6374696f6e00000000000000000000602082015250565b6000611aa160368361171a565b9150611aac82611a45565b604082019050919050565b60006020820190508181036000830152611ad081611a94565b9050919050565b7f506c6561736520656e73757265207468617420796f75722077616c6c6574206860008201527f6176652073756666696369656e742066756e647320746f2070617920666f722060208201527f7468652071756572790000000000000000000000000000000000000000000000604082015250565b6000611b5960498361171a565b9150611b6482611ad7565b606082019050919050565b60006020820190508181036000830152611b8881611b4c565b9050919050565b7f51756572792073656e742c20706c656173652077616974000000000000000000600082015250565b6000611bc560178361171a565b9150611bd082611b8f565b602082019050919050565b60006020820190508181036000830152611bf481611bb8565b9050919050565b60008190508160005260206000209050919050565b60006020601f8301049050919050565b600082821b905092915050565b600060088302611c5d7fffffffffffffffffffffffffffffffffffffffffffffffffffffffffffffffff82611c20565b611c678683611c20565b95508019841693508086168417925050509392505050565b6000819050919050565b6000819050919050565b6000611cae611ca9611ca484611c7f565b611c89565b611c7f565b9050919050565b6000819050919050565b611cc883611c93565b611cdc611cd482611cb5565b848454611c2d565b825550505050565b600090565b611cf1611ce4565b611cfc818484611cbf565b505050565b5b81811015611d2057611d15600082611ce9565b600181019050611d02565b5050565b601f821115611d6557611d3681611bfb565b611d3f84611c10565b81016020851015611d4e578190505b611d62611d5a85611c10565b830182611d01565b50505b505050565b600082821c905092915050565b6000611d8860001984600802611d6a565b1980831691505092915050565b6000611da18383611d77565b9150826002028217905092915050565b611dba8261170f565b67ffffffffffffffff811115611dd357611dd26117df565b5b611ddd8254611a14565b611de8828285611d24565b600060209050601f831160018114611e1b5760008415611e09578287015190505b611e138582611d95565b865550611e7b565b601f198416611e2986611bfb565b60005b82811015611e5157848901518255600182019150602085019450602081019050611e2c565b86831015611e6e5784890151611e6a601f891682611d77565b8355505b6001600288020188555050505b505050505050565b600073ffffffffffffffffffffffffffffffffffffffff82169050919050565b6000611eae82611e83565b9050919050565b611ebe81611ea3565b8114611ec957600080fd5b50565b600081519050611edb81611eb5565b92915050565b600060208284031215611ef757611ef66117cb565b5b6000611f0584828501611ecc565b91505092915050565b611f1781611c7f565b8114611f2257600080fd5b50565b600081519050611f3481611f0e565b92915050565b600060208284031215611f5057611f4f6117cb565b5b6000611f5e84828501611f25565b91505092915050565b600081905092915050565b6000611f7d8261170f565b611f878185611f67565b9350611f9781856020860161172b565b80840191505092915050565b6000611faf8284611f72565b915081905092915050565b7f4e487b7100000000000000000000000000000000000000000000000000000000600052601160045260246000fd5b6000611ff482611c7f565b9150611fff83611c7f565b925082820261200d81611c7f565b9150828204841483151761202457612023611fba565b5b5092915050565b600061203682611c7f565b915061204183611c7f565b925082820190508082111561205957612058611fba565b5b92915050565b6000819050919050565b600061208461207f61207a8461205f565b611c89565b611c7f565b9050919050565b61209481612069565b82525050565b60006060820190506120af600083018661208b565b81810360208301526120c18185611766565b905081810360408301526120d58184611766565b9050949350505050565b6000815190506120ee8161195d565b92915050565b60006020828403121561210a576121096117cb565b5b6000612118848285016120df565b9150509291505056fe786d6c2868747470733a2f2f7777772e6675656c65636f6e6f6d792e676f762f77732f726573742f6675656c707269636573292e6675656c5072696365732e64696573656c6a736f6e2868747470733a2f2f64726976652e676f6f676c652e636f6d2f75633f6578706f72743d646f776e6c6f61642669643d3153385152626d59396d6d7a7531504b4e63445f4674767a2d757548695452704d292e64656c697665726564a2646970667358221220198bfa84e814bb87b48aa84bd95c180232b665851ca4d8c6073120f142e6bf7d64736f6c63430008110033",
  "linkReferences": {},
  "deployedLinkReferences": {}
}