{
  "_format": "hh-sol-artifact-1",
  "contractName": "OracleEscrow",
  "sourceName": "contracts/OracleEscrow.sol",
  "abi": [
    {
      "inputs": [
        {
          "internalType": "address",
          "name": "_nftAddress",
          "type": "address"
        },
        {
          "internalType": "address",
          "name": "_oracle",
          "type": "address"
        }
      ],
      "stateMutability": "nonpayable",
      "type": "constructor"
    },
    {
      "inputs": [
        {
          "internalType": "uint256",
          "name": "",
          "type": "uint256"
        },
        {
          "internalType": "address",
          "name": "",
          "type": "address"
        }
      ],
      "name": "approval",
      "outputs": [
        {
          "internalType": "bool",
          "name": "",
          "type": "bool"
        }
      ],
      "stateMutability": "view",
      "type": "function"
    },
    {
      "inputs": [
        {
          "internalType": "uint256",
          "name": "_nftID",
          "type": "uint256"
        }
      ],
      "name": "approveSale",
      "outputs": [],
      "stateMutability": "nonpayable",
      "type": "function"
    },
    {
      "inputs": [
        {
          "internalType": "uint256",
          "name": "",
          "type": "uint256"
        }
      ],
      "name": "buyer",
      "outputs": [
        {
          "internalType": "address",
          "name": "",
          "type": "address"
        }
      ],
      "stateMutability": "view",
      "type": "function"
    },
    {
      "inputs": [
        {
          "internalType": "uint256",
          "name": "_nftID",
          "type": "uint256"
        }
      ],
      "name": "cancelSale",
      "outputs": [],
      "stateMutability": "nonpayable",
      "type": "function"
    },
    {
      "inputs": [
        {
          "internalType": "uint256",
          "name": "_nftID",
          "type": "uint256"
        }
      ],
      "name": "depositEarnest",
      "outputs": [],
      "stateMutability": "payable",
      "type": "function"
    },
    {
      "inputs": [
        {
          "internalType": "uint256",
          "name": "",
          "type": "uint256"
        }
      ],
      "name": "escrowAmount",
      "outputs": [
        {
          "internalType": "uint256",
          "name": "",
          "type": "uint256"
        }
      ],
      "stateMutability": "view",
      "type": "function"
    },
    {
      "inputs": [],
      "name": "fashionContract",
      "outputs": [
        {
          "internalType": "contract FashionProducts",
          "name": "",
          "type": "address"
        }
      ],
      "stateMutability": "view",
      "type": "function"
    },
    {
      "inputs": [
        {
          "internalType": "uint256",
          "name": "_nftID",
          "type": "uint256"
        }
      ],
      "name": "finalizeSale",
      "outputs": [],
      "stateMutability": "nonpayable",
      "type": "function"
    },
    {
      "inputs": [],
      "name": "getBalance",
      "outputs": [
        {
          "internalType": "uint256",
          "name": "",
          "type": "uint256"
        }
      ],
      "stateMutability": "view",
      "type": "function"
    },
    {
      "inputs": [
        {
          "internalType": "uint256",
          "name": "",
          "type": "uint256"
        }
      ],
      "name": "isListed",
      "outputs": [
        {
          "internalType": "bool",
          "name": "",
          "type": "bool"
        }
      ],
      "stateMutability": "view",
      "type": "function"
    },
    {
      "inputs": [
        {
          "internalType": "uint256",
          "name": "_nftID",
          "type": "uint256"
        },
        {
          "internalType": "uint256",
          "name": "_purchasePrice",
          "type": "uint256"
        },
        {
          "internalType": "uint256",
          "name": "_escrowAmount",
          "type": "uint256"
        }
      ],
      "name": "list",
      "outputs": [],
      "stateMutability": "payable",
      "type": "function"
    },
    {
      "inputs": [],
      "name": "nftAddress",
      "outputs": [
        {
          "internalType": "address",
          "name": "",
          "type": "address"
        }
      ],
      "stateMutability": "view",
      "type": "function"
    },
    {
      "inputs": [
        {
          "internalType": "uint256",
          "name": "",
          "type": "uint256"
        }
      ],
      "name": "nftSeller",
      "outputs": [
        {
          "internalType": "address",
          "name": "",
          "type": "address"
        }
      ],
      "stateMutability": "view",
      "type": "function"
    },
    {
      "inputs": [
        {
          "internalType": "address",
          "name": "",
          "type": "address"
        },
        {
          "internalType": "address",
          "name": "",
          "type": "address"
        },
        {
          "internalType": "uint256",
          "name": "",
          "type": "uint256"
        },
        {
          "internalType": "bytes",
          "name": "",
          "type": "bytes"
        }
      ],
      "name": "onERC721Received",
      "outputs": [
        {
          "internalType": "bytes4",
          "name": "",
          "type": "bytes4"
        }
      ],
      "stateMutability": "pure",
      "type": "function"
    },
    {
      "inputs": [],
      "name": "oracle",
      "outputs": [
        {
          "internalType": "address",
          "name": "",
          "type": "address"
        }
      ],
      "stateMutability": "view",
      "type": "function"
    },
    {
      "inputs": [
        {
          "internalType": "uint256",
          "name": "",
          "type": "uint256"
        }
      ],
      "name": "purchasePrice",
      "outputs": [
        {
          "internalType": "uint256",
          "name": "",
          "type": "uint256"
        }
      ],
      "stateMutability": "view",
      "type": "function"
    },
    {
      "inputs": [],
      "name": "seller",
      "outputs": [
        {
          "internalType": "address payable",
          "name": "",
          "type": "address"
        }
      ],
      "stateMutability": "view",
      "type": "function"
    },
    {
      "inputs": [
        {
          "internalType": "uint256",
          "name": "_nftID",
          "type": "uint256"
        },
        {
          "internalType": "bool",
          "name": "_delivered",
          "type": "bool"
        }
      ],
      "name": "updateDeliveryStatus",
      "outputs": [],
      "stateMutability": "nonpayable",
      "type": "function"
    },
    {
      "inputs": [
        {
          "internalType": "uint256",
          "name": "",
          "type": "uint256"
        }
      ],
      "name": "wasDelivered",
      "outputs": [
        {
          "internalType": "bool",
          "name": "",
          "type": "bool"
        }
      ],
      "stateMutability": "view",
      "type": "function"
    },
    {
      "stateMutability": "payable",
      "type": "receive"
    }
  ],
  "bytecode": "0x60806040523480156200001157600080fd5b50604051620017313803806200173183398181016040528101906200003791906200016b565b816000806101000a81548173ffffffffffffffffffffffffffffffffffffffff021916908373ffffffffffffffffffffffffffffffffffffffff16021790555080600260006101000a81548173ffffffffffffffffffffffffffffffffffffffff021916908373ffffffffffffffffffffffffffffffffffffffff16021790555081600360006101000a81548173ffffffffffffffffffffffffffffffffffffffff021916908373ffffffffffffffffffffffffffffffffffffffff1602179055505050620001b2565b600080fd5b600073ffffffffffffffffffffffffffffffffffffffff82169050919050565b6000620001338262000106565b9050919050565b620001458162000126565b81146200015157600080fd5b50565b60008151905062000165816200013a565b92915050565b6000806040838503121562000185576200018462000101565b5b6000620001958582860162000154565b9250506020620001a88582860162000154565b9150509250929050565b61156f80620001c26000396000f3fe6080604052600436106101185760003560e01c806377fbc4ae116100a0578063b87ce52b11610064578063b87ce52b146103d5578063bd94b00514610412578063d7ce0f4d1461043b578063e740f77014610466578063fcce4883146104825761011f565b806377fbc4ae146102de5780637dc0d1d01461031b57806392c30da214610346578063aa9293801461036f578063b848de35146103985761011f565b8063150b7a02116100e7578063150b7a02146101e057806319aeb4901461021d5780634dd4acaf146102395780635bf8633a146102765780635d19e56c146102a15761011f565b806308551a53146101245780630c37a78d1461014f57806312065fe01461018c57806314a72feb146101b75761011f565b3661011f57005b600080fd5b34801561013057600080fd5b506101396104bf565b6040516101469190610f5f565b60405180910390f35b34801561015b57600080fd5b5061017660048036038101906101719190610fba565b6104e5565b6040516101839190611002565b60405180910390f35b34801561019857600080fd5b506101a1610505565b6040516101ae919061102c565b60405180910390f35b3480156101c357600080fd5b506101de60048036038101906101d99190610fba565b61050d565b005b3480156101ec57600080fd5b50610207600480360381019061020291906110ea565b610579565b60405161021491906111ad565b60405180910390f35b610237600480360381019061023291906111c8565b61058e565b005b34801561024557600080fd5b50610260600480360381019061025b9190610fba565b6107db565b60405161026d919061122a565b60405180910390f35b34801561028257600080fd5b5061028b61080e565b604051610298919061122a565b60405180910390f35b3480156102ad57600080fd5b506102c860048036038101906102c39190610fba565b610832565b6040516102d5919061102c565b60405180910390f35b3480156102ea57600080fd5b5061030560048036038101906103009190610fba565b61084a565b604051610312919061102c565b60405180910390f35b34801561032757600080fd5b50610330610862565b60405161033d919061122a565b60405180910390f35b34801561035257600080fd5b5061036d60048036038101906103689190611271565b610888565b005b34801561037b57600080fd5b5061039660048036038101906103919190610fba565b610947565b005b3480156103a457600080fd5b506103bf60048036038101906103ba91906112b1565b610ce9565b6040516103cc9190611002565b60405180910390f35b3480156103e157600080fd5b506103fc60048036038101906103f79190610fba565b610d18565b604051610409919061122a565b60405180910390f35b34801561041e57600080fd5b5061043960048036038101906104349190610fba565b610d4b565b005b34801561044757600080fd5b50610450610e63565b60405161045d9190611350565b60405180910390f35b610480600480360381019061047b9190610fba565b610e89565b005b34801561048e57600080fd5b506104a960048036038101906104a49190610fba565b610efe565b6040516104b69190611002565b60405180910390f35b600160009054906101000a900473ffffffffffffffffffffffffffffffffffffffff1681565b60096020528060005260406000206000915054906101000a900460ff1681565b600047905090565b6001600a600083815260200190815260200160002060003373ffffffffffffffffffffffffffffffffffffffff1673ffffffffffffffffffffffffffffffffffffffff16815260200190815260200160002060006101000a81548160ff02191690831515021790555050565b600063150b7a0260e01b905095945050505050565b82600360009054906101000a900473ffffffffffffffffffffffffffffffffffffffff1673ffffffffffffffffffffffffffffffffffffffff166352d8a4d1826040518263ffffffff1660e01b81526004016105ea919061102c565b602060405180830381865afa158015610607573d6000803e3d6000fd5b505050506040513d601f19601f8201168201806040525081019061062b9190611380565b73ffffffffffffffffffffffffffffffffffffffff163373ffffffffffffffffffffffffffffffffffffffff1614610698576040517f08c379a000000000000000000000000000000000000000000000000000000000815260040161068f9061140a565b60405180910390fd5b60008054906101000a900473ffffffffffffffffffffffffffffffffffffffff1673ffffffffffffffffffffffffffffffffffffffff166342842e0e3330876040518463ffffffff1660e01b81526004016106f59392919061142a565b600060405180830381600087803b15801561070f57600080fd5b505af1158015610723573d6000803e3d6000fd5b5050505060016004600086815260200190815260200160002060006101000a81548160ff021916908315150217905550336008600086815260200190815260200160002060006101000a81548173ffffffffffffffffffffffffffffffffffffffff021916908373ffffffffffffffffffffffffffffffffffffffff16021790555082600560008681526020019081526020016000208190555081600660008681526020019081526020016000208190555050505050565b60076020528060005260406000206000915054906101000a900473ffffffffffffffffffffffffffffffffffffffff1681565b60008054906101000a900473ffffffffffffffffffffffffffffffffffffffff1681565b60066020528060005260406000206000915090505481565b60056020528060005260406000206000915090505481565b600260009054906101000a900473ffffffffffffffffffffffffffffffffffffffff1681565b600260009054906101000a900473ffffffffffffffffffffffffffffffffffffffff1673ffffffffffffffffffffffffffffffffffffffff163373ffffffffffffffffffffffffffffffffffffffff1614610918576040517f08c379a000000000000000000000000000000000000000000000000000000000815260040161090f906114d3565b60405180910390fd5b806009600084815260200190815260200160002060006101000a81548160ff0219169083151502179055505050565b6009600082815260200190815260200160002060009054906101000a900460ff1661097157600080fd5b600a600082815260200190815260200160002060006007600084815260200190815260200160002060009054906101000a900473ffffffffffffffffffffffffffffffffffffffff1673ffffffffffffffffffffffffffffffffffffffff1673ffffffffffffffffffffffffffffffffffffffff16815260200190815260200160002060009054906101000a900460ff16610a0b57600080fd5b600a600082815260200190815260200160002060006008600084815260200190815260200160002060009054906101000a900473ffffffffffffffffffffffffffffffffffffffff1673ffffffffffffffffffffffffffffffffffffffff1673ffffffffffffffffffffffffffffffffffffffff16815260200190815260200160002060009054906101000a900460ff16610aa557600080fd5b600a60008281526020019081526020016000206000600260009054906101000a900473ffffffffffffffffffffffffffffffffffffffff1673ffffffffffffffffffffffffffffffffffffffff1673ffffffffffffffffffffffffffffffffffffffff16815260200190815260200160002060009054906101000a900460ff16610b2e57600080fd5b6005600082815260200190815260200160002054471015610b4e57600080fd5b60006004600083815260200190815260200160002060006101000a81548160ff02191690831515021790555060006008600083815260200190815260200160002060009054906101000a900473ffffffffffffffffffffffffffffffffffffffff1673ffffffffffffffffffffffffffffffffffffffff1647604051610bd390611524565b60006040518083038185875af1925050503d8060008114610c10576040519150601f19603f3d011682016040523d82523d6000602084013e610c15565b606091505b5050905080610c2357600080fd5b60008054906101000a900473ffffffffffffffffffffffffffffffffffffffff1673ffffffffffffffffffffffffffffffffffffffff166342842e0e306007600086815260200190815260200160002060009054906101000a900473ffffffffffffffffffffffffffffffffffffffff16856040518463ffffffff1660e01b8152600401610cb39392919061142a565b600060405180830381600087803b158015610ccd57600080fd5b505af1158015610ce1573d6000803e3d6000fd5b505050505050565b600a6020528160005260406000206020528060005260406000206000915091509054906101000a900460ff1681565b60086020528060005260406000206000915054906101000a900473ffffffffffffffffffffffffffffffffffffffff1681565b600015156009600083815260200190815260200160002060009054906101000a900460ff16151503610df6576007600082815260200190815260200160002060009054906101000a900473ffffffffffffffffffffffffffffffffffffffff1673ffffffffffffffffffffffffffffffffffffffff166108fc479081150290604051600060405180830381858888f19350505050158015610df0573d6000803e3d6000fd5b50610e60565b600160009054906101000a900473ffffffffffffffffffffffffffffffffffffffff1673ffffffffffffffffffffffffffffffffffffffff166108fc479081150290604051600060405180830381858888f19350505050158015610e5e573d6000803e3d6000fd5b505b50565b600360009054906101000a900473ffffffffffffffffffffffffffffffffffffffff1681565b6006600082815260200190815260200160002054341015610ea957600080fd5b336007600083815260200190815260200160002060006101000a81548173ffffffffffffffffffffffffffffffffffffffff021916908373ffffffffffffffffffffffffffffffffffffffff16021790555050565b60046020528060005260406000206000915054906101000a900460ff1681565b600073ffffffffffffffffffffffffffffffffffffffff82169050919050565b6000610f4982610f1e565b9050919050565b610f5981610f3e565b82525050565b6000602082019050610f746000830184610f50565b92915050565b600080fd5b600080fd5b6000819050919050565b610f9781610f84565b8114610fa257600080fd5b50565b600081359050610fb481610f8e565b92915050565b600060208284031215610fd057610fcf610f7a565b5b6000610fde84828501610fa5565b91505092915050565b60008115159050919050565b610ffc81610fe7565b82525050565b60006020820190506110176000830184610ff3565b92915050565b61102681610f84565b82525050565b6000602082019050611041600083018461101d565b92915050565b600061105282610f1e565b9050919050565b61106281611047565b811461106d57600080fd5b50565b60008135905061107f81611059565b92915050565b600080fd5b600080fd5b600080fd5b60008083601f8401126110aa576110a9611085565b5b8235905067ffffffffffffffff8111156110c7576110c661108a565b5b6020830191508360018202830111156110e3576110e261108f565b5b9250929050565b60008060008060006080868803121561110657611105610f7a565b5b600061111488828901611070565b955050602061112588828901611070565b945050604061113688828901610fa5565b935050606086013567ffffffffffffffff81111561115757611156610f7f565b5b61116388828901611094565b92509250509295509295909350565b60007fffffffff0000000000000000000000000000000000000000000000000000000082169050919050565b6111a781611172565b82525050565b60006020820190506111c2600083018461119e565b92915050565b6000806000606084860312156111e1576111e0610f7a565b5b60006111ef86828701610fa5565b935050602061120086828701610fa5565b925050604061121186828701610fa5565b9150509250925092565b61122481611047565b82525050565b600060208201905061123f600083018461121b565b92915050565b61124e81610fe7565b811461125957600080fd5b50565b60008135905061126b81611245565b92915050565b6000806040838503121561128857611287610f7a565b5b600061129685828601610fa5565b92505060206112a78582860161125c565b9150509250929050565b600080604083850312156112c8576112c7610f7a565b5b60006112d685828601610fa5565b92505060206112e785828601611070565b9150509250929050565b6000819050919050565b600061131661131161130c84610f1e565b6112f1565b610f1e565b9050919050565b6000611328826112fb565b9050919050565b600061133a8261131d565b9050919050565b61134a8161132f565b82525050565b60006020820190506113656000830184611341565b92915050565b60008151905061137a81611059565b92915050565b60006020828403121561139657611395610f7a565b5b60006113a48482850161136b565b91505092915050565b600082825260208201905092915050565b7f4f6e6c792073656c6c65722063616e2063616c6c2074686973206d6574686f64600082015250565b60006113f46020836113ad565b91506113ff826113be565b602082019050919050565b60006020820190508181036000830152611423816113e7565b9050919050565b600060608201905061143f600083018661121b565b61144c602083018561121b565b611459604083018461101d565b949350505050565b7f4f6e6c79206f7261636c6520696e73706563746f722063616e2063616c6c207460008201527f686973206d6574686f6400000000000000000000000000000000000000000000602082015250565b60006114bd602a836113ad565b91506114c882611461565b604082019050919050565b600060208201905081810360008301526114ec816114b0565b9050919050565b600081905092915050565b50565b600061150e6000836114f3565b9150611519826114fe565b600082019050919050565b600061152f82611501565b915081905091905056fea26469706673582212205e4102f8f78a046a4b1dacda34112ecad559a68863ae66fafb7da791b29aa59e64736f6c63430008110033",
  "linkReferences": {},
  "deployedLinkReferences": {}
}