{
  "_format": "hh-sol-artifact-1",
  "contractName": "FashionToken",
  "sourceName": "contracts/FashionToken.sol",
  "abi": [
    {
      "inputs": [],
      "stateMutability": "nonpayable",
      "type": "constructor"
    },
    {
      "anonymous": false,
      "inputs": [
        {
          "indexed": true,
          "internalType": "address",
          "name": "owner",
          "type": "address"
        },
        {
          "indexed": true,
          "internalType": "address",
          "name": "approved",
          "type": "address"
        },
        {
          "indexed": true,
          "internalType": "uint256",
          "name": "tokenId",
          "type": "uint256"
        }
      ],
      "name": "Approval",
      "type": "event"
    },
    {
      "anonymous": false,
      "inputs": [
        {
          "indexed": true,
          "internalType": "address",
          "name": "owner",
          "type": "address"
        },
        {
          "indexed": true,
          "internalType": "address",
          "name": "operator",
          "type": "address"
        },
        {
          "indexed": false,
          "internalType": "bool",
          "name": "approved",
          "type": "bool"
        }
      ],
      "name": "ApprovalForAll",
      "type": "event"
    },
    {
      "anonymous": false,
      "inputs": [
        {
          "indexed": true,
          "internalType": "address",
          "name": "from",
          "type": "address"
        },
        {
          "indexed": true,
          "internalType": "address",
          "name": "to",
          "type": "address"
        },
        {
          "indexed": true,
          "internalType": "uint256",
          "name": "tokenId",
          "type": "uint256"
        }
      ],
      "name": "Transfer",
      "type": "event"
    },
    {
      "inputs": [
        {
          "internalType": "uint256",
          "name": "_nftID",
          "type": "uint256"
        },
        {
          "internalType": "address",
          "name": "_newOwner",
          "type": "address"
        }
      ],
      "name": "addToOwners",
      "outputs": [],
      "stateMutability": "nonpayable",
      "type": "function"
    },
    {
      "inputs": [
        {
          "internalType": "address",
          "name": "to",
          "type": "address"
        },
        {
          "internalType": "uint256",
          "name": "tokenId",
          "type": "uint256"
        }
      ],
      "name": "approve",
      "outputs": [],
      "stateMutability": "nonpayable",
      "type": "function"
    },
    {
      "inputs": [
        {
          "internalType": "address",
          "name": "owner",
          "type": "address"
        }
      ],
      "name": "balanceOf",
      "outputs": [
        {
          "internalType": "uint256",
          "name": "",
          "type": "uint256"
        }
      ],
      "stateMutability": "view",
      "type": "function"
    },
    {
      "inputs": [
        {
          "internalType": "address",
          "name": "_newOwner",
          "type": "address"
        }
      ],
      "name": "changeOwner",
      "outputs": [],
      "stateMutability": "nonpayable",
      "type": "function"
    },
    {
      "inputs": [
        {
          "internalType": "uint256",
          "name": "tokenId",
          "type": "uint256"
        }
      ],
      "name": "getApproved",
      "outputs": [
        {
          "internalType": "address",
          "name": "",
          "type": "address"
        }
      ],
      "stateMutability": "view",
      "type": "function"
    },
    {
      "inputs": [
        {
          "internalType": "uint256",
          "name": "_nftID",
          "type": "uint256"
        }
      ],
      "name": "getOwners",
      "outputs": [
        {
          "internalType": "address[]",
          "name": "",
          "type": "address[]"
        }
      ],
      "stateMutability": "view",
      "type": "function"
    },
    {
      "inputs": [
        {
          "internalType": "uint256",
          "name": "_nftId",
          "type": "uint256"
        }
      ],
      "name": "getOwnershipOf",
      "outputs": [
        {
          "internalType": "address",
          "name": "",
          "type": "address"
        }
      ],
      "stateMutability": "view",
      "type": "function"
    },
    {
      "inputs": [
        {
          "internalType": "address",
          "name": "owner",
          "type": "address"
        },
        {
          "internalType": "address",
          "name": "operator",
          "type": "address"
        }
      ],
      "name": "isApprovedForAll",
      "outputs": [
        {
          "internalType": "bool",
          "name": "",
          "type": "bool"
        }
      ],
      "stateMutability": "view",
      "type": "function"
    },
    {
      "inputs": [
        {
          "internalType": "uint256",
          "name": "",
          "type": "uint256"
        },
        {
          "internalType": "uint256",
          "name": "",
          "type": "uint256"
        }
      ],
      "name": "listOwners",
      "outputs": [
        {
          "internalType": "address",
          "name": "",
          "type": "address"
        }
      ],
      "stateMutability": "view",
      "type": "function"
    },
    {
      "inputs": [
        {
          "internalType": "string",
          "name": "tokenURI",
          "type": "string"
        },
        {
          "internalType": "address",
          "name": "_newOwner",
          "type": "address"
        }
      ],
      "name": "mint",
      "outputs": [
        {
          "internalType": "uint256",
          "name": "",
          "type": "uint256"
        }
      ],
      "stateMutability": "nonpayable",
      "type": "function"
    },
    {
      "inputs": [],
      "name": "name",
      "outputs": [
        {
          "internalType": "string",
          "name": "",
          "type": "string"
        }
      ],
      "stateMutability": "view",
      "type": "function"
    },
    {
      "inputs": [
        {
          "internalType": "uint256",
          "name": "",
          "type": "uint256"
        }
      ],
      "name": "numberOfOwners",
      "outputs": [
        {
          "internalType": "uint256",
          "name": "",
          "type": "uint256"
        }
      ],
      "stateMutability": "view",
      "type": "function"
    },
    {
      "inputs": [],
      "name": "owner",
      "outputs": [
        {
          "internalType": "address",
          "name": "",
          "type": "address"
        }
      ],
      "stateMutability": "view",
      "type": "function"
    },
    {
      "inputs": [
        {
          "internalType": "uint256",
          "name": "tokenId",
          "type": "uint256"
        }
      ],
      "name": "ownerOf",
      "outputs": [
        {
          "internalType": "address",
          "name": "",
          "type": "address"
        }
      ],
      "stateMutability": "view",
      "type": "function"
    },
    {
      "inputs": [
        {
          "internalType": "address",
          "name": "from",
          "type": "address"
        },
        {
          "internalType": "address",
          "name": "to",
          "type": "address"
        },
        {
          "internalType": "uint256",
          "name": "tokenId",
          "type": "uint256"
        }
      ],
      "name": "safeTransferFrom",
      "outputs": [],
      "stateMutability": "nonpayable",
      "type": "function"
    },
    {
      "inputs": [
        {
          "internalType": "address",
          "name": "from",
          "type": "address"
        },
        {
          "internalType": "address",
          "name": "to",
          "type": "address"
        },
        {
          "internalType": "uint256",
          "name": "tokenId",
          "type": "uint256"
        },
        {
          "internalType": "bytes",
          "name": "data",
          "type": "bytes"
        }
      ],
      "name": "safeTransferFrom",
      "outputs": [],
      "stateMutability": "nonpayable",
      "type": "function"
    },
    {
      "inputs": [
        {
          "internalType": "address",
          "name": "operator",
          "type": "address"
        },
        {
          "internalType": "bool",
          "name": "approved",
          "type": "bool"
        }
      ],
      "name": "setApprovalForAll",
      "outputs": [],
      "stateMutability": "nonpayable",
      "type": "function"
    },
    {
      "inputs": [
        {
          "internalType": "bytes4",
          "name": "interfaceId",
          "type": "bytes4"
        }
      ],
      "name": "supportsInterface",
      "outputs": [
        {
          "internalType": "bool",
          "name": "",
          "type": "bool"
        }
      ],
      "stateMutability": "view",
      "type": "function"
    },
    {
      "inputs": [],
      "name": "symbol",
      "outputs": [
        {
          "internalType": "string",
          "name": "",
          "type": "string"
        }
      ],
      "stateMutability": "view",
      "type": "function"
    },
    {
      "inputs": [
        {
          "internalType": "uint256",
          "name": "tokenId",
          "type": "uint256"
        }
      ],
      "name": "tokenURI",
      "outputs": [
        {
          "internalType": "string",
          "name": "",
          "type": "string"
        }
      ],
      "stateMutability": "view",
      "type": "function"
    },
    {
      "inputs": [],
      "name": "totalSupply",
      "outputs": [
        {
          "internalType": "uint256",
          "name": "",
          "type": "uint256"
        }
      ],
      "stateMutability": "view",
      "type": "function"
    },
    {
      "inputs": [
        {
          "internalType": "address",
          "name": "from",
          "type": "address"
        },
        {
          "internalType": "address",
          "name": "to",
          "type": "address"
        },
        {
          "internalType": "uint256",
          "name": "tokenId",
          "type": "uint256"
        }
      ],
      "name": "transferFrom",
      "outputs": [],
      "stateMutability": "nonpayable",
      "type": "function"
    }
  ],
  "bytecode": "0x60806040523480156200001157600080fd5b506040518060400160405280600c81526020017f536d617274204c757875727900000000000000000000000000000000000000008152506040518060400160405280600481526020017f534c55580000000000000000000000000000000000000000000000000000000081525081600090816200008f919062000365565b508060019081620000a1919062000365565b50505033600860006101000a81548173ffffffffffffffffffffffffffffffffffffffff021916908373ffffffffffffffffffffffffffffffffffffffff1602179055506200044c565b600081519050919050565b7f4e487b7100000000000000000000000000000000000000000000000000000000600052604160045260246000fd5b7f4e487b7100000000000000000000000000000000000000000000000000000000600052602260045260246000fd5b600060028204905060018216806200016d57607f821691505b60208210810362000183576200018262000125565b5b50919050565b60008190508160005260206000209050919050565b60006020601f8301049050919050565b600082821b905092915050565b600060088302620001ed7fffffffffffffffffffffffffffffffffffffffffffffffffffffffffffffffff82620001ae565b620001f98683620001ae565b95508019841693508086168417925050509392505050565b6000819050919050565b6000819050919050565b600062000246620002406200023a8462000211565b6200021b565b62000211565b9050919050565b6000819050919050565b620002628362000225565b6200027a62000271826200024d565b848454620001bb565b825550505050565b600090565b6200029162000282565b6200029e81848462000257565b505050565b5b81811015620002c657620002ba60008262000287565b600181019050620002a4565b5050565b601f8211156200031557620002df8162000189565b620002ea846200019e565b81016020851015620002fa578190505b6200031262000309856200019e565b830182620002a3565b50505b505050565b600082821c905092915050565b60006200033a600019846008026200031a565b1980831691505092915050565b600062000355838362000327565b9150826002028217905092915050565b6200037082620000eb565b67ffffffffffffffff8111156200038c576200038b620000f6565b5b62000398825462000154565b620003a5828285620002ca565b600060209050601f831160018114620003dd5760008415620003c8578287015190505b620003d4858262000347565b86555062000444565b601f198416620003ed8662000189565b60005b828110156200041757848901518255600182019150602085019450602081019050620003f0565b8683101562000437578489015162000433601f89168262000327565b8355505b6001600288020188555050505b505050505050565b613249806200045c6000396000f3fe608060405234801561001057600080fd5b50600436106101425760003560e01c806370a08231116100b8578063a6f9dae11161007c578063a6f9dae11461039b578063b88d4fde146103b7578063c87b56dd146103d3578063d5780ec414610403578063e985e9c514610433578063ee4525d51461046357610142565b806370a08231146102e3578063822deb62146103135780638da5cb5b1461034357806395d89b4114610361578063a22cb4651461037f57610142565b80631af58d321161010a5780631af58d32146101ff5780631c351a9d1461021b57806323b872dd1461024b57806342842e0e1461026757806352d8a4d1146102835780636352211e146102b357610142565b806301ffc9a71461014757806306fdde0314610177578063081812fc14610195578063095ea7b3146101c557806318160ddd146101e1575b600080fd5b610161600480360381019061015c9190611dba565b610493565b60405161016e9190611e02565b60405180910390f35b61017f610575565b60405161018c9190611ead565b60405180910390f35b6101af60048036038101906101aa9190611f05565b610607565b6040516101bc9190611f73565b60405180910390f35b6101df60048036038101906101da9190611fba565b61064d565b005b6101e9610764565b6040516101f69190612009565b60405180910390f35b61021960048036038101906102149190612024565b610775565b005b61023560048036038101906102309190612199565b6108a8565b6040516102429190612009565b60405180910390f35b610265600480360381019061026091906121f5565b610944565b005b610281600480360381019061027c91906121f5565b6109a4565b005b61029d60048036038101906102989190611f05565b6109c4565b6040516102aa9190611f73565b60405180910390f35b6102cd60048036038101906102c89190611f05565b610a47565b6040516102da9190611f73565b60405180910390f35b6102fd60048036038101906102f89190612248565b610af8565b60405161030a9190612009565b60405180910390f35b61032d60048036038101906103289190612275565b610baf565b60405161033a9190611f73565b60405180910390f35b61034b610bf1565b6040516103589190611f73565b60405180910390f35b610369610c17565b6040516103769190611ead565b60405180910390f35b610399600480360381019061039491906122e1565b610ca9565b005b6103b560048036038101906103b09190612248565b610cbf565b005b6103d160048036038101906103cc91906123c2565b610d5d565b005b6103ed60048036038101906103e89190611f05565b610dbf565b6040516103fa9190611ead565b60405180910390f35b61041d60048036038101906104189190611f05565b610ed1565b60405161042a9190612009565b60405180910390f35b61044d60048036038101906104489190612445565b610ee9565b60405161045a9190611e02565b60405180910390f35b61047d60048036038101906104789190611f05565b610f7d565b60405161048a9190612543565b60405180910390f35b60007f80ac58cd000000000000000000000000000000000000000000000000000000007bffffffffffffffffffffffffffffffffffffffffffffffffffffffff1916827bffffffffffffffffffffffffffffffffffffffffffffffffffffffff1916148061055e57507f5b5e139f000000000000000000000000000000000000000000000000000000007bffffffffffffffffffffffffffffffffffffffffffffffffffffffff1916827bffffffffffffffffffffffffffffffffffffffffffffffffffffffff1916145b8061056e575061056d826110ac565b5b9050919050565b60606000805461058490612594565b80601f01602080910402602001604051908101604052809291908181526020018280546105b090612594565b80156105fd5780601f106105d2576101008083540402835291602001916105fd565b820191906000526020600020905b8154815290600101906020018083116105e057829003601f168201915b5050505050905090565b600061061282611116565b6004600083815260200190815260200160002060009054906101000a900473ffffffffffffffffffffffffffffffffffffffff169050919050565b600061065882610a47565b90508073ffffffffffffffffffffffffffffffffffffffff168373ffffffffffffffffffffffffffffffffffffffff16036106c8576040517f08c379a00000000000000000000000000000000000000000000000000000000081526004016106bf90612637565b60405180910390fd5b8073ffffffffffffffffffffffffffffffffffffffff166106e7611161565b73ffffffffffffffffffffffffffffffffffffffff161480610716575061071581610710611161565b610ee9565b5b610755576040517f08c379a000000000000000000000000000000000000000000000000000000000815260040161074c906126c9565b60405180910390fd5b61075f8383611169565b505050565b60006107706007611222565b905090565b600860009054906101000a900473ffffffffffffffffffffffffffffffffffffffff1673ffffffffffffffffffffffffffffffffffffffff163373ffffffffffffffffffffffffffffffffffffffff1614610805576040517f08c379a00000000000000000000000000000000000000000000000000000000081526004016107fc90612735565b60405180910390fd5b80600a600084815260200190815260200160002060006009600086815260200190815260200160002054815260200190815260200160002060006101000a81548173ffffffffffffffffffffffffffffffffffffffff021916908373ffffffffffffffffffffffffffffffffffffffff16021790555060096000838152602001908152602001600020600081548092919061089f90612784565b91905055505050565b6000600860009054906101000a900473ffffffffffffffffffffffffffffffffffffffff1673ffffffffffffffffffffffffffffffffffffffff163373ffffffffffffffffffffffffffffffffffffffff161461090457600080fd5b61090e6007611230565b600061091a6007611222565b90506109263382611246565b610930818561141f565b61093a8184610775565b8091505092915050565b61095561094f611161565b8261148c565b610994576040517f08c379a000000000000000000000000000000000000000000000000000000000815260040161098b9061283e565b60405180910390fd5b61099f838383611521565b505050565b6109bf83838360405180602001604052806000815250610d5d565b505050565b60003073ffffffffffffffffffffffffffffffffffffffff16636352211e836040518263ffffffff1660e01b81526004016109ff9190612009565b602060405180830381865afa158015610a1c573d6000803e3d6000fd5b505050506040513d601f19601f82011682018060405250810190610a409190612873565b9050919050565b6000806002600084815260200190815260200160002060009054906101000a900473ffffffffffffffffffffffffffffffffffffffff169050600073ffffffffffffffffffffffffffffffffffffffff168173ffffffffffffffffffffffffffffffffffffffff1603610aef576040517f08c379a0000000000000000000000000000000000000000000000000000000008152600401610ae6906128ec565b60405180910390fd5b80915050919050565b60008073ffffffffffffffffffffffffffffffffffffffff168273ffffffffffffffffffffffffffffffffffffffff1603610b68576040517f08c379a0000000000000000000000000000000000000000000000000000000008152600401610b5f9061297e565b60405180910390fd5b600360008373ffffffffffffffffffffffffffffffffffffffff1673ffffffffffffffffffffffffffffffffffffffff168152602001908152602001600020549050919050565b600a6020528160005260406000206020528060005260406000206000915091509054906101000a900473ffffffffffffffffffffffffffffffffffffffff1681565b600860009054906101000a900473ffffffffffffffffffffffffffffffffffffffff1681565b606060018054610c2690612594565b80601f0160208091040260200160405190810160405280929190818152602001828054610c5290612594565b8015610c9f5780601f10610c7457610100808354040283529160200191610c9f565b820191906000526020600020905b815481529060010190602001808311610c8257829003601f168201915b5050505050905090565b610cbb610cb4611161565b8383611787565b5050565b600860009054906101000a900473ffffffffffffffffffffffffffffffffffffffff1673ffffffffffffffffffffffffffffffffffffffff163373ffffffffffffffffffffffffffffffffffffffff1614610d1957600080fd5b80600860006101000a81548173ffffffffffffffffffffffffffffffffffffffff021916908373ffffffffffffffffffffffffffffffffffffffff16021790555050565b610d6e610d68611161565b8361148c565b610dad576040517f08c379a0000000000000000000000000000000000000000000000000000000008152600401610da49061283e565b60405180910390fd5b610db9848484846118f3565b50505050565b6060610dca82611116565b6000600660008481526020019081526020016000208054610dea90612594565b80601f0160208091040260200160405190810160405280929190818152602001828054610e1690612594565b8015610e635780601f10610e3857610100808354040283529160200191610e63565b820191906000526020600020905b815481529060010190602001808311610e4657829003601f168201915b505050505090506000610e7461194f565b90506000815103610e89578192505050610ecc565b600082511115610ebe578082604051602001610ea69291906129da565b60405160208183030381529060405292505050610ecc565b610ec784611966565b925050505b919050565b60096020528060005260406000206000915090505481565b6000600560008473ffffffffffffffffffffffffffffffffffffffff1673ffffffffffffffffffffffffffffffffffffffff16815260200190815260200160002060008373ffffffffffffffffffffffffffffffffffffffff1673ffffffffffffffffffffffffffffffffffffffff16815260200190815260200160002060009054906101000a900460ff16905092915050565b60606000600960008481526020019081526020016000205467ffffffffffffffff811115610fae57610fad61206e565b5b604051908082528060200260200182016040528015610fdc5781602001602082028036833780820191505090505b50905060005b60096000858152602001908152602001600020548110156110a257600a6000858152602001908152602001600020600082815260200190815260200160002060009054906101000a900473ffffffffffffffffffffffffffffffffffffffff16828281518110611055576110546129fe565b5b602002602001019073ffffffffffffffffffffffffffffffffffffffff16908173ffffffffffffffffffffffffffffffffffffffff1681525050808061109a90612784565b915050610fe2565b5080915050919050565b60007f01ffc9a7000000000000000000000000000000000000000000000000000000007bffffffffffffffffffffffffffffffffffffffffffffffffffffffff1916827bffffffffffffffffffffffffffffffffffffffffffffffffffffffff1916149050919050565b61111f816119ce565b61115e576040517f08c379a0000000000000000000000000000000000000000000000000000000008152600401611155906128ec565b60405180910390fd5b50565b600033905090565b816004600083815260200190815260200160002060006101000a81548173ffffffffffffffffffffffffffffffffffffffff021916908373ffffffffffffffffffffffffffffffffffffffff160217905550808273ffffffffffffffffffffffffffffffffffffffff166111dc83610a47565b73ffffffffffffffffffffffffffffffffffffffff167f8c5be1e5ebec7d5bd14f71427d1e84f3dd0314c0f7b2291e5b200ac8c7c3b92560405160405180910390a45050565b600081600001549050919050565b6001816000016000828254019250508190555050565b600073ffffffffffffffffffffffffffffffffffffffff168273ffffffffffffffffffffffffffffffffffffffff16036112b5576040517f08c379a00000000000000000000000000000000000000000000000000000000081526004016112ac90612a79565b60405180910390fd5b6112be816119ce565b156112fe576040517f08c379a00000000000000000000000000000000000000000000000000000000081526004016112f590612ae5565b60405180910390fd5b61130a60008383611a3a565b6001600360008473ffffffffffffffffffffffffffffffffffffffff1673ffffffffffffffffffffffffffffffffffffffff168152602001908152602001600020600082825461135a9190612b05565b92505081905550816002600083815260200190815260200160002060006101000a81548173ffffffffffffffffffffffffffffffffffffffff021916908373ffffffffffffffffffffffffffffffffffffffff160217905550808273ffffffffffffffffffffffffffffffffffffffff16600073ffffffffffffffffffffffffffffffffffffffff167fddf252ad1be2c89b69c2b068fc378daa952ba7f163c4a11628f55a4df523b3ef60405160405180910390a461141b60008383611a3f565b5050565b611428826119ce565b611467576040517f08c379a000000000000000000000000000000000000000000000000000000000815260040161145e90612bab565b60405180910390fd5b806006600084815260200190815260200160002090816114879190612d77565b505050565b60008061149883610a47565b90508073ffffffffffffffffffffffffffffffffffffffff168473ffffffffffffffffffffffffffffffffffffffff1614806114da57506114d98185610ee9565b5b8061151857508373ffffffffffffffffffffffffffffffffffffffff1661150084610607565b73ffffffffffffffffffffffffffffffffffffffff16145b91505092915050565b8273ffffffffffffffffffffffffffffffffffffffff1661154182610a47565b73ffffffffffffffffffffffffffffffffffffffff1614611597576040517f08c379a000000000000000000000000000000000000000000000000000000000815260040161158e90612ebb565b60405180910390fd5b600073ffffffffffffffffffffffffffffffffffffffff168273ffffffffffffffffffffffffffffffffffffffff1603611606576040517f08c379a00000000000000000000000000000000000000000000000000000000081526004016115fd90612f4d565b60405180910390fd5b611611838383611a3a565b61161c600082611169565b6001600360008573ffffffffffffffffffffffffffffffffffffffff1673ffffffffffffffffffffffffffffffffffffffff168152602001908152602001600020600082825461166c9190612f6d565b925050819055506001600360008473ffffffffffffffffffffffffffffffffffffffff1673ffffffffffffffffffffffffffffffffffffffff16815260200190815260200160002060008282546116c39190612b05565b92505081905550816002600083815260200190815260200160002060006101000a81548173ffffffffffffffffffffffffffffffffffffffff021916908373ffffffffffffffffffffffffffffffffffffffff160217905550808273ffffffffffffffffffffffffffffffffffffffff168473ffffffffffffffffffffffffffffffffffffffff167fddf252ad1be2c89b69c2b068fc378daa952ba7f163c4a11628f55a4df523b3ef60405160405180910390a4611782838383611a3f565b505050565b8173ffffffffffffffffffffffffffffffffffffffff168373ffffffffffffffffffffffffffffffffffffffff16036117f5576040517f08c379a00000000000000000000000000000000000000000000000000000000081526004016117ec90612fed565b60405180910390fd5b80600560008573ffffffffffffffffffffffffffffffffffffffff1673ffffffffffffffffffffffffffffffffffffffff16815260200190815260200160002060008473ffffffffffffffffffffffffffffffffffffffff1673ffffffffffffffffffffffffffffffffffffffff16815260200190815260200160002060006101000a81548160ff0219169083151502179055508173ffffffffffffffffffffffffffffffffffffffff168373ffffffffffffffffffffffffffffffffffffffff167f17307eab39ab6107e8899845ad3d59bd9653f200f220920489ca2b5937696c31836040516118e69190611e02565b60405180910390a3505050565b6118fe848484611521565b61190a84848484611a44565b611949576040517f08c379a00000000000000000000000000000000000000000000000000000000081526004016119409061307f565b60405180910390fd5b50505050565b606060405180602001604052806000815250905090565b606061197182611116565b600061197b61194f565b9050600081511161199b57604051806020016040528060008152506119c6565b806119a584611bcb565b6040516020016119b69291906129da565b6040516020818303038152906040525b915050919050565b60008073ffffffffffffffffffffffffffffffffffffffff166002600084815260200190815260200160002060009054906101000a900473ffffffffffffffffffffffffffffffffffffffff1673ffffffffffffffffffffffffffffffffffffffff1614159050919050565b505050565b505050565b6000611a658473ffffffffffffffffffffffffffffffffffffffff16611d2b565b15611bbe578373ffffffffffffffffffffffffffffffffffffffff1663150b7a02611a8e611161565b8786866040518563ffffffff1660e01b8152600401611ab094939291906130f4565b6020604051808303816000875af1925050508015611aec57506040513d601f19601f82011682018060405250810190611ae99190613155565b60015b611b6e573d8060008114611b1c576040519150601f19603f3d011682016040523d82523d6000602084013e611b21565b606091505b506000815103611b66576040517f08c379a0000000000000000000000000000000000000000000000000000000008152600401611b5d9061307f565b60405180910390fd5b805181602001fd5b63150b7a0260e01b7bffffffffffffffffffffffffffffffffffffffffffffffffffffffff1916817bffffffffffffffffffffffffffffffffffffffffffffffffffffffff191614915050611bc3565b600190505b949350505050565b606060008203611c12576040518060400160405280600181526020017f30000000000000000000000000000000000000000000000000000000000000008152509050611d26565b600082905060005b60008214611c44578080611c2d90612784565b915050600a82611c3d91906131b1565b9150611c1a565b60008167ffffffffffffffff811115611c6057611c5f61206e565b5b6040519080825280601f01601f191660200182016040528015611c925781602001600182028036833780820191505090505b5090505b60008514611d1f57600182611cab9190612f6d565b9150600a85611cba91906131e2565b6030611cc69190612b05565b60f81b818381518110611cdc57611cdb6129fe565b5b60200101907effffffffffffffffffffffffffffffffffffffffffffffffffffffffffffff1916908160001a905350600a85611d1891906131b1565b9450611c96565b8093505050505b919050565b6000808273ffffffffffffffffffffffffffffffffffffffff163b119050919050565b6000604051905090565b600080fd5b600080fd5b60007fffffffff0000000000000000000000000000000000000000000000000000000082169050919050565b611d9781611d62565b8114611da257600080fd5b50565b600081359050611db481611d8e565b92915050565b600060208284031215611dd057611dcf611d58565b5b6000611dde84828501611da5565b91505092915050565b60008115159050919050565b611dfc81611de7565b82525050565b6000602082019050611e176000830184611df3565b92915050565b600081519050919050565b600082825260208201905092915050565b60005b83811015611e57578082015181840152602081019050611e3c565b60008484015250505050565b6000601f19601f8301169050919050565b6000611e7f82611e1d565b611e898185611e28565b9350611e99818560208601611e39565b611ea281611e63565b840191505092915050565b60006020820190508181036000830152611ec78184611e74565b905092915050565b6000819050919050565b611ee281611ecf565b8114611eed57600080fd5b50565b600081359050611eff81611ed9565b92915050565b600060208284031215611f1b57611f1a611d58565b5b6000611f2984828501611ef0565b91505092915050565b600073ffffffffffffffffffffffffffffffffffffffff82169050919050565b6000611f5d82611f32565b9050919050565b611f6d81611f52565b82525050565b6000602082019050611f886000830184611f64565b92915050565b611f9781611f52565b8114611fa257600080fd5b50565b600081359050611fb481611f8e565b92915050565b60008060408385031215611fd157611fd0611d58565b5b6000611fdf85828601611fa5565b9250506020611ff085828601611ef0565b9150509250929050565b61200381611ecf565b82525050565b600060208201905061201e6000830184611ffa565b92915050565b6000806040838503121561203b5761203a611d58565b5b600061204985828601611ef0565b925050602061205a85828601611fa5565b9150509250929050565b600080fd5b600080fd5b7f4e487b7100000000000000000000000000000000000000000000000000000000600052604160045260246000fd5b6120a682611e63565b810181811067ffffffffffffffff821117156120c5576120c461206e565b5b80604052505050565b60006120d8611d4e565b90506120e4828261209d565b919050565b600067ffffffffffffffff8211156121045761210361206e565b5b61210d82611e63565b9050602081019050919050565b82818337600083830152505050565b600061213c612137846120e9565b6120ce565b90508281526020810184848401111561215857612157612069565b5b61216384828561211a565b509392505050565b600082601f8301126121805761217f612064565b5b8135612190848260208601612129565b91505092915050565b600080604083850312156121b0576121af611d58565b5b600083013567ffffffffffffffff8111156121ce576121cd611d5d565b5b6121da8582860161216b565b92505060206121eb85828601611fa5565b9150509250929050565b60008060006060848603121561220e5761220d611d58565b5b600061221c86828701611fa5565b935050602061222d86828701611fa5565b925050604061223e86828701611ef0565b9150509250925092565b60006020828403121561225e5761225d611d58565b5b600061226c84828501611fa5565b91505092915050565b6000806040838503121561228c5761228b611d58565b5b600061229a85828601611ef0565b92505060206122ab85828601611ef0565b9150509250929050565b6122be81611de7565b81146122c957600080fd5b50565b6000813590506122db816122b5565b92915050565b600080604083850312156122f8576122f7611d58565b5b600061230685828601611fa5565b9250506020612317858286016122cc565b9150509250929050565b600067ffffffffffffffff82111561233c5761233b61206e565b5b61234582611e63565b9050602081019050919050565b600061236561236084612321565b6120ce565b90508281526020810184848401111561238157612380612069565b5b61238c84828561211a565b509392505050565b600082601f8301126123a9576123a8612064565b5b81356123b9848260208601612352565b91505092915050565b600080600080608085870312156123dc576123db611d58565b5b60006123ea87828801611fa5565b94505060206123fb87828801611fa5565b935050604061240c87828801611ef0565b925050606085013567ffffffffffffffff81111561242d5761242c611d5d565b5b61243987828801612394565b91505092959194509250565b6000806040838503121561245c5761245b611d58565b5b600061246a85828601611fa5565b925050602061247b85828601611fa5565b9150509250929050565b600081519050919050565b600082825260208201905092915050565b6000819050602082019050919050565b6124ba81611f52565b82525050565b60006124cc83836124b1565b60208301905092915050565b6000602082019050919050565b60006124f082612485565b6124fa8185612490565b9350612505836124a1565b8060005b8381101561253657815161251d88826124c0565b9750612528836124d8565b925050600181019050612509565b5085935050505092915050565b6000602082019050818103600083015261255d81846124e5565b905092915050565b7f4e487b7100000000000000000000000000000000000000000000000000000000600052602260045260246000fd5b600060028204905060018216806125ac57607f821691505b6020821081036125bf576125be612565565b5b50919050565b7f4552433732313a20617070726f76616c20746f2063757272656e74206f776e6560008201527f7200000000000000000000000000000000000000000000000000000000000000602082015250565b6000612621602183611e28565b915061262c826125c5565b604082019050919050565b6000602082019050818103600083015261265081612614565b9050919050565b7f4552433732313a20617070726f76652063616c6c6572206973206e6f7420746f60008201527f6b656e206f776e6572206e6f7220617070726f76656420666f7220616c6c0000602082015250565b60006126b3603e83611e28565b91506126be82612657565b604082019050919050565b600060208201905081810360008301526126e2816126a6565b9050919050565b7f496e76616c696420616464726573732063616c6c000000000000000000000000600082015250565b600061271f601483611e28565b915061272a826126e9565b602082019050919050565b6000602082019050818103600083015261274e81612712565b9050919050565b7f4e487b7100000000000000000000000000000000000000000000000000000000600052601160045260246000fd5b600061278f82611ecf565b91507fffffffffffffffffffffffffffffffffffffffffffffffffffffffffffffffff82036127c1576127c0612755565b5b600182019050919050565b7f4552433732313a2063616c6c6572206973206e6f7420746f6b656e206f776e6560008201527f72206e6f7220617070726f766564000000000000000000000000000000000000602082015250565b6000612828602e83611e28565b9150612833826127cc565b604082019050919050565b600060208201905081810360008301526128578161281b565b9050919050565b60008151905061286d81611f8e565b92915050565b60006020828403121561288957612888611d58565b5b60006128978482850161285e565b91505092915050565b7f4552433732313a20696e76616c696420746f6b656e2049440000000000000000600082015250565b60006128d6601883611e28565b91506128e1826128a0565b602082019050919050565b60006020820190508181036000830152612905816128c9565b9050919050565b7f4552433732313a2061646472657373207a65726f206973206e6f74206120766160008201527f6c6964206f776e65720000000000000000000000000000000000000000000000602082015250565b6000612968602983611e28565b91506129738261290c565b604082019050919050565b600060208201905081810360008301526129978161295b565b9050919050565b600081905092915050565b60006129b482611e1d565b6129be818561299e565b93506129ce818560208601611e39565b80840191505092915050565b60006129e682856129a9565b91506129f282846129a9565b91508190509392505050565b7f4e487b7100000000000000000000000000000000000000000000000000000000600052603260045260246000fd5b7f4552433732313a206d696e7420746f20746865207a65726f2061646472657373600082015250565b6000612a63602083611e28565b9150612a6e82612a2d565b602082019050919050565b60006020820190508181036000830152612a9281612a56565b9050919050565b7f4552433732313a20746f6b656e20616c7265616479206d696e74656400000000600082015250565b6000612acf601c83611e28565b9150612ada82612a99565b602082019050919050565b60006020820190508181036000830152612afe81612ac2565b9050919050565b6000612b1082611ecf565b9150612b1b83611ecf565b9250828201905080821115612b3357612b32612755565b5b92915050565b7f45524337323155524953746f726167653a2055524920736574206f66206e6f6e60008201527f6578697374656e7420746f6b656e000000000000000000000000000000000000602082015250565b6000612b95602e83611e28565b9150612ba082612b39565b604082019050919050565b60006020820190508181036000830152612bc481612b88565b9050919050565b60008190508160005260206000209050919050565b60006020601f8301049050919050565b600082821b905092915050565b600060088302612c2d7fffffffffffffffffffffffffffffffffffffffffffffffffffffffffffffffff82612bf0565b612c378683612bf0565b95508019841693508086168417925050509392505050565b6000819050919050565b6000612c74612c6f612c6a84611ecf565b612c4f565b611ecf565b9050919050565b6000819050919050565b612c8e83612c59565b612ca2612c9a82612c7b565b848454612bfd565b825550505050565b600090565b612cb7612caa565b612cc2818484612c85565b505050565b5b81811015612ce657612cdb600082612caf565b600181019050612cc8565b5050565b601f821115612d2b57612cfc81612bcb565b612d0584612be0565b81016020851015612d14578190505b612d28612d2085612be0565b830182612cc7565b50505b505050565b600082821c905092915050565b6000612d4e60001984600802612d30565b1980831691505092915050565b6000612d678383612d3d565b9150826002028217905092915050565b612d8082611e1d565b67ffffffffffffffff811115612d9957612d9861206e565b5b612da38254612594565b612dae828285612cea565b600060209050601f831160018114612de15760008415612dcf578287015190505b612dd98582612d5b565b865550612e41565b601f198416612def86612bcb565b60005b82811015612e1757848901518255600182019150602085019450602081019050612df2565b86831015612e345784890151612e30601f891682612d3d565b8355505b6001600288020188555050505b505050505050565b7f4552433732313a207472616e736665722066726f6d20696e636f72726563742060008201527f6f776e6572000000000000000000000000000000000000000000000000000000602082015250565b6000612ea5602583611e28565b9150612eb082612e49565b604082019050919050565b60006020820190508181036000830152612ed481612e98565b9050919050565b7f4552433732313a207472616e7366657220746f20746865207a65726f2061646460008201527f7265737300000000000000000000000000000000000000000000000000000000602082015250565b6000612f37602483611e28565b9150612f4282612edb565b604082019050919050565b60006020820190508181036000830152612f6681612f2a565b9050919050565b6000612f7882611ecf565b9150612f8383611ecf565b9250828203905081811115612f9b57612f9a612755565b5b92915050565b7f4552433732313a20617070726f766520746f2063616c6c657200000000000000600082015250565b6000612fd7601983611e28565b9150612fe282612fa1565b602082019050919050565b6000602082019050818103600083015261300681612fca565b9050919050565b7f4552433732313a207472616e7366657220746f206e6f6e20455243373231526560008201527f63656976657220696d706c656d656e7465720000000000000000000000000000602082015250565b6000613069603283611e28565b91506130748261300d565b604082019050919050565b600060208201905081810360008301526130988161305c565b9050919050565b600081519050919050565b600082825260208201905092915050565b60006130c68261309f565b6130d081856130aa565b93506130e0818560208601611e39565b6130e981611e63565b840191505092915050565b60006080820190506131096000830187611f64565b6131166020830186611f64565b6131236040830185611ffa565b818103606083015261313581846130bb565b905095945050505050565b60008151905061314f81611d8e565b92915050565b60006020828403121561316b5761316a611d58565b5b600061317984828501613140565b91505092915050565b7f4e487b7100000000000000000000000000000000000000000000000000000000600052601260045260246000fd5b60006131bc82611ecf565b91506131c783611ecf565b9250826131d7576131d6613182565b5b828204905092915050565b60006131ed82611ecf565b91506131f883611ecf565b92508261320857613207613182565b5b82820690509291505056fea2646970667358221220879a0d68a764535072118435353add65ad45b1b7a31d8bf5eecac28b827f2d1864736f6c63430008110033",
  "linkReferences": {},
  "deployedLinkReferences": {}
}