{
  "_format": "hh-sol-artifact-1",
  "contractName": "FashionProducts",
  "sourceName": "contracts/FashionProducts.sol",
  "abi": [
    {
      "inputs": [],
      "stateMutability": "nonpayable",
      "type": "constructor"
    },
    {
      "anonymous": false,
      "inputs": [
        {
          "indexed": true,
          "internalType": "address",
          "name": "owner",
          "type": "address"
        },
        {
          "indexed": true,
          "internalType": "address",
          "name": "approved",
          "type": "address"
        },
        {
          "indexed": true,
          "internalType": "uint256",
          "name": "tokenId",
          "type": "uint256"
        }
      ],
      "name": "Approval",
      "type": "event"
    },
    {
      "anonymous": false,
      "inputs": [
        {
          "indexed": true,
          "internalType": "address",
          "name": "owner",
          "type": "address"
        },
        {
          "indexed": true,
          "internalType": "address",
          "name": "operator",
          "type": "address"
        },
        {
          "indexed": false,
          "internalType": "bool",
          "name": "approved",
          "type": "bool"
        }
      ],
      "name": "ApprovalForAll",
      "type": "event"
    },
    {
      "anonymous": false,
      "inputs": [
        {
          "indexed": true,
          "internalType": "address",
          "name": "from",
          "type": "address"
        },
        {
          "indexed": true,
          "internalType": "address",
          "name": "to",
          "type": "address"
        },
        {
          "indexed": true,
          "internalType": "uint256",
          "name": "tokenId",
          "type": "uint256"
        }
      ],
      "name": "Transfer",
      "type": "event"
    },
    {
      "inputs": [
        {
          "internalType": "address",
          "name": "to",
          "type": "address"
        },
        {
          "internalType": "uint256",
          "name": "tokenId",
          "type": "uint256"
        }
      ],
      "name": "approve",
      "outputs": [],
      "stateMutability": "nonpayable",
      "type": "function"
    },
    {
      "inputs": [
        {
          "internalType": "address",
          "name": "owner",
          "type": "address"
        }
      ],
      "name": "balanceOf",
      "outputs": [
        {
          "internalType": "uint256",
          "name": "",
          "type": "uint256"
        }
      ],
      "stateMutability": "view",
      "type": "function"
    },
    {
      "inputs": [
        {
          "internalType": "uint256",
          "name": "tokenId",
          "type": "uint256"
        }
      ],
      "name": "getApproved",
      "outputs": [
        {
          "internalType": "address",
          "name": "",
          "type": "address"
        }
      ],
      "stateMutability": "view",
      "type": "function"
    },
    {
      "inputs": [
        {
          "internalType": "uint256",
          "name": "_nftId",
          "type": "uint256"
        }
      ],
      "name": "getOwnershipOf",
      "outputs": [
        {
          "internalType": "address",
          "name": "",
          "type": "address"
        }
      ],
      "stateMutability": "view",
      "type": "function"
    },
    {
      "inputs": [
        {
          "internalType": "address",
          "name": "owner",
          "type": "address"
        },
        {
          "internalType": "address",
          "name": "operator",
          "type": "address"
        }
      ],
      "name": "isApprovedForAll",
      "outputs": [
        {
          "internalType": "bool",
          "name": "",
          "type": "bool"
        }
      ],
      "stateMutability": "view",
      "type": "function"
    },
    {
      "inputs": [
        {
          "internalType": "string",
          "name": "tokenURI",
          "type": "string"
        }
      ],
      "name": "mint",
      "outputs": [
        {
          "internalType": "uint256",
          "name": "",
          "type": "uint256"
        }
      ],
      "stateMutability": "nonpayable",
      "type": "function"
    },
    {
      "inputs": [],
      "name": "name",
      "outputs": [
        {
          "internalType": "string",
          "name": "",
          "type": "string"
        }
      ],
      "stateMutability": "view",
      "type": "function"
    },
    {
      "inputs": [
        {
          "internalType": "uint256",
          "name": "tokenId",
          "type": "uint256"
        }
      ],
      "name": "ownerOf",
      "outputs": [
        {
          "internalType": "address",
          "name": "",
          "type": "address"
        }
      ],
      "stateMutability": "view",
      "type": "function"
    },
    {
      "inputs": [
        {
          "internalType": "address",
          "name": "from",
          "type": "address"
        },
        {
          "internalType": "address",
          "name": "to",
          "type": "address"
        },
        {
          "internalType": "uint256",
          "name": "tokenId",
          "type": "uint256"
        }
      ],
      "name": "safeTransferFrom",
      "outputs": [],
      "stateMutability": "nonpayable",
      "type": "function"
    },
    {
      "inputs": [
        {
          "internalType": "address",
          "name": "from",
          "type": "address"
        },
        {
          "internalType": "address",
          "name": "to",
          "type": "address"
        },
        {
          "internalType": "uint256",
          "name": "tokenId",
          "type": "uint256"
        },
        {
          "internalType": "bytes",
          "name": "data",
          "type": "bytes"
        }
      ],
      "name": "safeTransferFrom",
      "outputs": [],
      "stateMutability": "nonpayable",
      "type": "function"
    },
    {
      "inputs": [
        {
          "internalType": "address",
          "name": "operator",
          "type": "address"
        },
        {
          "internalType": "bool",
          "name": "approved",
          "type": "bool"
        }
      ],
      "name": "setApprovalForAll",
      "outputs": [],
      "stateMutability": "nonpayable",
      "type": "function"
    },
    {
      "inputs": [
        {
          "internalType": "bytes4",
          "name": "interfaceId",
          "type": "bytes4"
        }
      ],
      "name": "supportsInterface",
      "outputs": [
        {
          "internalType": "bool",
          "name": "",
          "type": "bool"
        }
      ],
      "stateMutability": "view",
      "type": "function"
    },
    {
      "inputs": [],
      "name": "symbol",
      "outputs": [
        {
          "internalType": "string",
          "name": "",
          "type": "string"
        }
      ],
      "stateMutability": "view",
      "type": "function"
    },
    {
      "inputs": [
        {
          "internalType": "uint256",
          "name": "tokenId",
          "type": "uint256"
        }
      ],
      "name": "tokenURI",
      "outputs": [
        {
          "internalType": "string",
          "name": "",
          "type": "string"
        }
      ],
      "stateMutability": "view",
      "type": "function"
    },
    {
      "inputs": [],
      "name": "totalSupply",
      "outputs": [
        {
          "internalType": "uint256",
          "name": "",
          "type": "uint256"
        }
      ],
      "stateMutability": "view",
      "type": "function"
    },
    {
      "inputs": [
        {
          "internalType": "address",
          "name": "from",
          "type": "address"
        },
        {
          "internalType": "address",
          "name": "to",
          "type": "address"
        },
        {
          "internalType": "uint256",
          "name": "tokenId",
          "type": "uint256"
        }
      ],
      "name": "transferFrom",
      "outputs": [],
      "stateMutability": "nonpayable",
      "type": "function"
    }
  ],
  "bytecode": "0x60806040523480156200001157600080fd5b506040518060400160405280600c81526020017f536d617274204c757875727900000000000000000000000000000000000000008152506040518060400160405280600481526020017f534c55580000000000000000000000000000000000000000000000000000000081525081600090816200008f919062000324565b508060019081620000a1919062000324565b5050506200040b565b600081519050919050565b7f4e487b7100000000000000000000000000000000000000000000000000000000600052604160045260246000fd5b7f4e487b7100000000000000000000000000000000000000000000000000000000600052602260045260246000fd5b600060028204905060018216806200012c57607f821691505b602082108103620001425762000141620000e4565b5b50919050565b60008190508160005260206000209050919050565b60006020601f8301049050919050565b600082821b905092915050565b600060088302620001ac7fffffffffffffffffffffffffffffffffffffffffffffffffffffffffffffffff826200016d565b620001b886836200016d565b95508019841693508086168417925050509392505050565b6000819050919050565b6000819050919050565b600062000205620001ff620001f984620001d0565b620001da565b620001d0565b9050919050565b6000819050919050565b6200022183620001e4565b6200023962000230826200020c565b8484546200017a565b825550505050565b600090565b6200025062000241565b6200025d81848462000216565b505050565b5b8181101562000285576200027960008262000246565b60018101905062000263565b5050565b601f821115620002d4576200029e8162000148565b620002a9846200015d565b81016020851015620002b9578190505b620002d1620002c8856200015d565b83018262000262565b50505b505050565b600082821c905092915050565b6000620002f960001984600802620002d9565b1980831691505092915050565b6000620003148383620002e6565b9150826002028217905092915050565b6200032f82620000aa565b67ffffffffffffffff8111156200034b576200034a620000b5565b5b62000357825462000113565b6200036482828562000289565b600060209050601f8311600181146200039c576000841562000387578287015190505b62000393858262000306565b86555062000403565b601f198416620003ac8662000148565b60005b82811015620003d657848901518255600182019150602085019450602081019050620003af565b86831015620003f65784890151620003f2601f891682620002e6565b8355505b6001600288020188555050505b505050505050565b612b5d806200041b6000396000f3fe608060405234801561001057600080fd5b50600436106101005760003560e01c80636352211e11610097578063b88d4fde11610066578063b88d4fde146102bf578063c87b56dd146102db578063d85d3d271461030b578063e985e9c51461033b57610100565b80636352211e1461022557806370a082311461025557806395d89b4114610285578063a22cb465146102a357610100565b806318160ddd116100d357806318160ddd1461019f57806323b872dd146101bd57806342842e0e146101d957806352d8a4d1146101f557610100565b806301ffc9a71461010557806306fdde0314610135578063081812fc14610153578063095ea7b314610183575b600080fd5b61011f600480360381019061011a91906118ad565b61036b565b60405161012c91906118f5565b60405180910390f35b61013d61044d565b60405161014a91906119a0565b60405180910390f35b61016d600480360381019061016891906119f8565b6104df565b60405161017a9190611a66565b60405180910390f35b61019d60048036038101906101989190611aad565b610525565b005b6101a761063c565b6040516101b49190611afc565b60405180910390f35b6101d760048036038101906101d29190611b17565b61064d565b005b6101f360048036038101906101ee9190611b17565b6106ad565b005b61020f600480360381019061020a91906119f8565b6106cd565b60405161021c9190611a66565b60405180910390f35b61023f600480360381019061023a91906119f8565b610750565b60405161024c9190611a66565b60405180910390f35b61026f600480360381019061026a9190611b6a565b610801565b60405161027c9190611afc565b60405180910390f35b61028d6108b8565b60405161029a91906119a0565b60405180910390f35b6102bd60048036038101906102b89190611bc3565b61094a565b005b6102d960048036038101906102d49190611d38565b610960565b005b6102f560048036038101906102f091906119f8565b6109c2565b60405161030291906119a0565b60405180910390f35b61032560048036038101906103209190611e5c565b610ad4565b6040516103329190611afc565b60405180910390f35b61035560048036038101906103509190611ea5565b610b0b565b60405161036291906118f5565b60405180910390f35b60007f80ac58cd000000000000000000000000000000000000000000000000000000007bffffffffffffffffffffffffffffffffffffffffffffffffffffffff1916827bffffffffffffffffffffffffffffffffffffffffffffffffffffffff1916148061043657507f5b5e139f000000000000000000000000000000000000000000000000000000007bffffffffffffffffffffffffffffffffffffffffffffffffffffffff1916827bffffffffffffffffffffffffffffffffffffffffffffffffffffffff1916145b80610446575061044582610b9f565b5b9050919050565b60606000805461045c90611f14565b80601f016020809104026020016040519081016040528092919081815260200182805461048890611f14565b80156104d55780601f106104aa576101008083540402835291602001916104d5565b820191906000526020600020905b8154815290600101906020018083116104b857829003601f168201915b5050505050905090565b60006104ea82610c09565b6004600083815260200190815260200160002060009054906101000a900473ffffffffffffffffffffffffffffffffffffffff169050919050565b600061053082610750565b90508073ffffffffffffffffffffffffffffffffffffffff168373ffffffffffffffffffffffffffffffffffffffff16036105a0576040517f08c379a000000000000000000000000000000000000000000000000000000000815260040161059790611fb7565b60405180910390fd5b8073ffffffffffffffffffffffffffffffffffffffff166105bf610c54565b73ffffffffffffffffffffffffffffffffffffffff1614806105ee57506105ed816105e8610c54565b610b0b565b5b61062d576040517f08c379a000000000000000000000000000000000000000000000000000000000815260040161062490612049565b60405180910390fd5b6106378383610c5c565b505050565b60006106486007610d15565b905090565b61065e610658610c54565b82610d23565b61069d576040517f08c379a0000000000000000000000000000000000000000000000000000000008152600401610694906120db565b60405180910390fd5b6106a8838383610db8565b505050565b6106c883838360405180602001604052806000815250610960565b505050565b60003073ffffffffffffffffffffffffffffffffffffffff16636352211e836040518263ffffffff1660e01b81526004016107089190611afc565b602060405180830381865afa158015610725573d6000803e3d6000fd5b505050506040513d601f19601f820116820180604052508101906107499190612110565b9050919050565b6000806002600084815260200190815260200160002060009054906101000a900473ffffffffffffffffffffffffffffffffffffffff169050600073ffffffffffffffffffffffffffffffffffffffff168173ffffffffffffffffffffffffffffffffffffffff16036107f8576040517f08c379a00000000000000000000000000000000000000000000000000000000081526004016107ef90612189565b60405180910390fd5b80915050919050565b60008073ffffffffffffffffffffffffffffffffffffffff168273ffffffffffffffffffffffffffffffffffffffff1603610871576040517f08c379a00000000000000000000000000000000000000000000000000000000081526004016108689061221b565b60405180910390fd5b600360008373ffffffffffffffffffffffffffffffffffffffff1673ffffffffffffffffffffffffffffffffffffffff168152602001908152602001600020549050919050565b6060600180546108c790611f14565b80601f01602080910402602001604051908101604052809291908181526020018280546108f390611f14565b80156109405780601f1061091557610100808354040283529160200191610940565b820191906000526020600020905b81548152906001019060200180831161092357829003601f168201915b5050505050905090565b61095c610955610c54565b838361101e565b5050565b61097161096b610c54565b83610d23565b6109b0576040517f08c379a00000000000000000000000000000000000000000000000000000000081526004016109a7906120db565b60405180910390fd5b6109bc8484848461118a565b50505050565b60606109cd82610c09565b60006006600084815260200190815260200160002080546109ed90611f14565b80601f0160208091040260200160405190810160405280929190818152602001828054610a1990611f14565b8015610a665780601f10610a3b57610100808354040283529160200191610a66565b820191906000526020600020905b815481529060010190602001808311610a4957829003601f168201915b505050505090506000610a776111e6565b90506000815103610a8c578192505050610acf565b600082511115610ac1578082604051602001610aa9929190612277565b60405160208183030381529060405292505050610acf565b610aca846111fd565b925050505b919050565b6000610ae06007611265565b6000610aec6007610d15565b9050610af8338261127b565b610b028184611454565b80915050919050565b6000600560008473ffffffffffffffffffffffffffffffffffffffff1673ffffffffffffffffffffffffffffffffffffffff16815260200190815260200160002060008373ffffffffffffffffffffffffffffffffffffffff1673ffffffffffffffffffffffffffffffffffffffff16815260200190815260200160002060009054906101000a900460ff16905092915050565b60007f01ffc9a7000000000000000000000000000000000000000000000000000000007bffffffffffffffffffffffffffffffffffffffffffffffffffffffff1916827bffffffffffffffffffffffffffffffffffffffffffffffffffffffff1916149050919050565b610c12816114c1565b610c51576040517f08c379a0000000000000000000000000000000000000000000000000000000008152600401610c4890612189565b60405180910390fd5b50565b600033905090565b816004600083815260200190815260200160002060006101000a81548173ffffffffffffffffffffffffffffffffffffffff021916908373ffffffffffffffffffffffffffffffffffffffff160217905550808273ffffffffffffffffffffffffffffffffffffffff16610ccf83610750565b73ffffffffffffffffffffffffffffffffffffffff167f8c5be1e5ebec7d5bd14f71427d1e84f3dd0314c0f7b2291e5b200ac8c7c3b92560405160405180910390a45050565b600081600001549050919050565b600080610d2f83610750565b90508073ffffffffffffffffffffffffffffffffffffffff168473ffffffffffffffffffffffffffffffffffffffff161480610d715750610d708185610b0b565b5b80610daf57508373ffffffffffffffffffffffffffffffffffffffff16610d97846104df565b73ffffffffffffffffffffffffffffffffffffffff16145b91505092915050565b8273ffffffffffffffffffffffffffffffffffffffff16610dd882610750565b73ffffffffffffffffffffffffffffffffffffffff1614610e2e576040517f08c379a0000000000000000000000000000000000000000000000000000000008152600401610e259061230d565b60405180910390fd5b600073ffffffffffffffffffffffffffffffffffffffff168273ffffffffffffffffffffffffffffffffffffffff1603610e9d576040517f08c379a0000000000000000000000000000000000000000000000000000000008152600401610e949061239f565b60405180910390fd5b610ea883838361152d565b610eb3600082610c5c565b6001600360008573ffffffffffffffffffffffffffffffffffffffff1673ffffffffffffffffffffffffffffffffffffffff1681526020019081526020016000206000828254610f0391906123ee565b925050819055506001600360008473ffffffffffffffffffffffffffffffffffffffff1673ffffffffffffffffffffffffffffffffffffffff1681526020019081526020016000206000828254610f5a9190612422565b92505081905550816002600083815260200190815260200160002060006101000a81548173ffffffffffffffffffffffffffffffffffffffff021916908373ffffffffffffffffffffffffffffffffffffffff160217905550808273ffffffffffffffffffffffffffffffffffffffff168473ffffffffffffffffffffffffffffffffffffffff167fddf252ad1be2c89b69c2b068fc378daa952ba7f163c4a11628f55a4df523b3ef60405160405180910390a4611019838383611532565b505050565b8173ffffffffffffffffffffffffffffffffffffffff168373ffffffffffffffffffffffffffffffffffffffff160361108c576040517f08c379a0000000000000000000000000000000000000000000000000000000008152600401611083906124a2565b60405180910390fd5b80600560008573ffffffffffffffffffffffffffffffffffffffff1673ffffffffffffffffffffffffffffffffffffffff16815260200190815260200160002060008473ffffffffffffffffffffffffffffffffffffffff1673ffffffffffffffffffffffffffffffffffffffff16815260200190815260200160002060006101000a81548160ff0219169083151502179055508173ffffffffffffffffffffffffffffffffffffffff168373ffffffffffffffffffffffffffffffffffffffff167f17307eab39ab6107e8899845ad3d59bd9653f200f220920489ca2b5937696c318360405161117d91906118f5565b60405180910390a3505050565b611195848484610db8565b6111a184848484611537565b6111e0576040517f08c379a00000000000000000000000000000000000000000000000000000000081526004016111d790612534565b60405180910390fd5b50505050565b606060405180602001604052806000815250905090565b606061120882610c09565b60006112126111e6565b90506000815111611232576040518060200160405280600081525061125d565b8061123c846116be565b60405160200161124d929190612277565b6040516020818303038152906040525b915050919050565b6001816000016000828254019250508190555050565b600073ffffffffffffffffffffffffffffffffffffffff168273ffffffffffffffffffffffffffffffffffffffff16036112ea576040517f08c379a00000000000000000000000000000000000000000000000000000000081526004016112e1906125a0565b60405180910390fd5b6112f3816114c1565b15611333576040517f08c379a000000000000000000000000000000000000000000000000000000000815260040161132a9061260c565b60405180910390fd5b61133f6000838361152d565b6001600360008473ffffffffffffffffffffffffffffffffffffffff1673ffffffffffffffffffffffffffffffffffffffff168152602001908152602001600020600082825461138f9190612422565b92505081905550816002600083815260200190815260200160002060006101000a81548173ffffffffffffffffffffffffffffffffffffffff021916908373ffffffffffffffffffffffffffffffffffffffff160217905550808273ffffffffffffffffffffffffffffffffffffffff16600073ffffffffffffffffffffffffffffffffffffffff167fddf252ad1be2c89b69c2b068fc378daa952ba7f163c4a11628f55a4df523b3ef60405160405180910390a461145060008383611532565b5050565b61145d826114c1565b61149c576040517f08c379a00000000000000000000000000000000000000000000000000000000081526004016114939061269e565b60405180910390fd5b806006600084815260200190815260200160002090816114bc919061286a565b505050565b60008073ffffffffffffffffffffffffffffffffffffffff166002600084815260200190815260200160002060009054906101000a900473ffffffffffffffffffffffffffffffffffffffff1673ffffffffffffffffffffffffffffffffffffffff1614159050919050565b505050565b505050565b60006115588473ffffffffffffffffffffffffffffffffffffffff1661181e565b156116b1578373ffffffffffffffffffffffffffffffffffffffff1663150b7a02611581610c54565b8786866040518563ffffffff1660e01b81526004016115a39493929190612991565b6020604051808303816000875af19250505080156115df57506040513d601f19601f820116820180604052508101906115dc91906129f2565b60015b611661573d806000811461160f576040519150601f19603f3d011682016040523d82523d6000602084013e611614565b606091505b506000815103611659576040517f08c379a000000000000000000000000000000000000000000000000000000000815260040161165090612534565b60405180910390fd5b805181602001fd5b63150b7a0260e01b7bffffffffffffffffffffffffffffffffffffffffffffffffffffffff1916817bffffffffffffffffffffffffffffffffffffffffffffffffffffffff1916149150506116b6565b600190505b949350505050565b606060008203611705576040518060400160405280600181526020017f30000000000000000000000000000000000000000000000000000000000000008152509050611819565b600082905060005b6000821461173757808061172090612a1f565b915050600a826117309190612a96565b915061170d565b60008167ffffffffffffffff81111561175357611752611c0d565b5b6040519080825280601f01601f1916602001820160405280156117855781602001600182028036833780820191505090505b5090505b600085146118125760018261179e91906123ee565b9150600a856117ad9190612ac7565b60306117b99190612422565b60f81b8183815181106117cf576117ce612af8565b5b60200101907effffffffffffffffffffffffffffffffffffffffffffffffffffffffffffff1916908160001a905350600a8561180b9190612a96565b9450611789565b8093505050505b919050565b6000808273ffffffffffffffffffffffffffffffffffffffff163b119050919050565b6000604051905090565b600080fd5b600080fd5b60007fffffffff0000000000000000000000000000000000000000000000000000000082169050919050565b61188a81611855565b811461189557600080fd5b50565b6000813590506118a781611881565b92915050565b6000602082840312156118c3576118c261184b565b5b60006118d184828501611898565b91505092915050565b60008115159050919050565b6118ef816118da565b82525050565b600060208201905061190a60008301846118e6565b92915050565b600081519050919050565b600082825260208201905092915050565b60005b8381101561194a57808201518184015260208101905061192f565b60008484015250505050565b6000601f19601f8301169050919050565b600061197282611910565b61197c818561191b565b935061198c81856020860161192c565b61199581611956565b840191505092915050565b600060208201905081810360008301526119ba8184611967565b905092915050565b6000819050919050565b6119d5816119c2565b81146119e057600080fd5b50565b6000813590506119f2816119cc565b92915050565b600060208284031215611a0e57611a0d61184b565b5b6000611a1c848285016119e3565b91505092915050565b600073ffffffffffffffffffffffffffffffffffffffff82169050919050565b6000611a5082611a25565b9050919050565b611a6081611a45565b82525050565b6000602082019050611a7b6000830184611a57565b92915050565b611a8a81611a45565b8114611a9557600080fd5b50565b600081359050611aa781611a81565b92915050565b60008060408385031215611ac457611ac361184b565b5b6000611ad285828601611a98565b9250506020611ae3858286016119e3565b9150509250929050565b611af6816119c2565b82525050565b6000602082019050611b116000830184611aed565b92915050565b600080600060608486031215611b3057611b2f61184b565b5b6000611b3e86828701611a98565b9350506020611b4f86828701611a98565b9250506040611b60868287016119e3565b9150509250925092565b600060208284031215611b8057611b7f61184b565b5b6000611b8e84828501611a98565b91505092915050565b611ba0816118da565b8114611bab57600080fd5b50565b600081359050611bbd81611b97565b92915050565b60008060408385031215611bda57611bd961184b565b5b6000611be885828601611a98565b9250506020611bf985828601611bae565b9150509250929050565b600080fd5b600080fd5b7f4e487b7100000000000000000000000000000000000000000000000000000000600052604160045260246000fd5b611c4582611956565b810181811067ffffffffffffffff82111715611c6457611c63611c0d565b5b80604052505050565b6000611c77611841565b9050611c838282611c3c565b919050565b600067ffffffffffffffff821115611ca357611ca2611c0d565b5b611cac82611956565b9050602081019050919050565b82818337600083830152505050565b6000611cdb611cd684611c88565b611c6d565b905082815260208101848484011115611cf757611cf6611c08565b5b611d02848285611cb9565b509392505050565b600082601f830112611d1f57611d1e611c03565b5b8135611d2f848260208601611cc8565b91505092915050565b60008060008060808587031215611d5257611d5161184b565b5b6000611d6087828801611a98565b9450506020611d7187828801611a98565b9350506040611d82878288016119e3565b925050606085013567ffffffffffffffff811115611da357611da2611850565b5b611daf87828801611d0a565b91505092959194509250565b600067ffffffffffffffff821115611dd657611dd5611c0d565b5b611ddf82611956565b9050602081019050919050565b6000611dff611dfa84611dbb565b611c6d565b905082815260208101848484011115611e1b57611e1a611c08565b5b611e26848285611cb9565b509392505050565b600082601f830112611e4357611e42611c03565b5b8135611e53848260208601611dec565b91505092915050565b600060208284031215611e7257611e7161184b565b5b600082013567ffffffffffffffff811115611e9057611e8f611850565b5b611e9c84828501611e2e565b91505092915050565b60008060408385031215611ebc57611ebb61184b565b5b6000611eca85828601611a98565b9250506020611edb85828601611a98565b9150509250929050565b7f4e487b7100000000000000000000000000000000000000000000000000000000600052602260045260246000fd5b60006002820490506001821680611f2c57607f821691505b602082108103611f3f57611f3e611ee5565b5b50919050565b7f4552433732313a20617070726f76616c20746f2063757272656e74206f776e6560008201527f7200000000000000000000000000000000000000000000000000000000000000602082015250565b6000611fa160218361191b565b9150611fac82611f45565b604082019050919050565b60006020820190508181036000830152611fd081611f94565b9050919050565b7f4552433732313a20617070726f76652063616c6c6572206973206e6f7420746f60008201527f6b656e206f776e6572206e6f7220617070726f76656420666f7220616c6c0000602082015250565b6000612033603e8361191b565b915061203e82611fd7565b604082019050919050565b6000602082019050818103600083015261206281612026565b9050919050565b7f4552433732313a2063616c6c6572206973206e6f7420746f6b656e206f776e6560008201527f72206e6f7220617070726f766564000000000000000000000000000000000000602082015250565b60006120c5602e8361191b565b91506120d082612069565b604082019050919050565b600060208201905081810360008301526120f4816120b8565b9050919050565b60008151905061210a81611a81565b92915050565b6000602082840312156121265761212561184b565b5b6000612134848285016120fb565b91505092915050565b7f4552433732313a20696e76616c696420746f6b656e2049440000000000000000600082015250565b600061217360188361191b565b915061217e8261213d565b602082019050919050565b600060208201905081810360008301526121a281612166565b9050919050565b7f4552433732313a2061646472657373207a65726f206973206e6f74206120766160008201527f6c6964206f776e65720000000000000000000000000000000000000000000000602082015250565b600061220560298361191b565b9150612210826121a9565b604082019050919050565b60006020820190508181036000830152612234816121f8565b9050919050565b600081905092915050565b600061225182611910565b61225b818561223b565b935061226b81856020860161192c565b80840191505092915050565b60006122838285612246565b915061228f8284612246565b91508190509392505050565b7f4552433732313a207472616e736665722066726f6d20696e636f72726563742060008201527f6f776e6572000000000000000000000000000000000000000000000000000000602082015250565b60006122f760258361191b565b91506123028261229b565b604082019050919050565b60006020820190508181036000830152612326816122ea565b9050919050565b7f4552433732313a207472616e7366657220746f20746865207a65726f2061646460008201527f7265737300000000000000000000000000000000000000000000000000000000602082015250565b600061238960248361191b565b91506123948261232d565b604082019050919050565b600060208201905081810360008301526123b88161237c565b9050919050565b7f4e487b7100000000000000000000000000000000000000000000000000000000600052601160045260246000fd5b60006123f9826119c2565b9150612404836119c2565b925082820390508181111561241c5761241b6123bf565b5b92915050565b600061242d826119c2565b9150612438836119c2565b92508282019050808211156124505761244f6123bf565b5b92915050565b7f4552433732313a20617070726f766520746f2063616c6c657200000000000000600082015250565b600061248c60198361191b565b915061249782612456565b602082019050919050565b600060208201905081810360008301526124bb8161247f565b9050919050565b7f4552433732313a207472616e7366657220746f206e6f6e20455243373231526560008201527f63656976657220696d706c656d656e7465720000000000000000000000000000602082015250565b600061251e60328361191b565b9150612529826124c2565b604082019050919050565b6000602082019050818103600083015261254d81612511565b9050919050565b7f4552433732313a206d696e7420746f20746865207a65726f2061646472657373600082015250565b600061258a60208361191b565b915061259582612554565b602082019050919050565b600060208201905081810360008301526125b98161257d565b9050919050565b7f4552433732313a20746f6b656e20616c7265616479206d696e74656400000000600082015250565b60006125f6601c8361191b565b9150612601826125c0565b602082019050919050565b60006020820190508181036000830152612625816125e9565b9050919050565b7f45524337323155524953746f726167653a2055524920736574206f66206e6f6e60008201527f6578697374656e7420746f6b656e000000000000000000000000000000000000602082015250565b6000612688602e8361191b565b91506126938261262c565b604082019050919050565b600060208201905081810360008301526126b78161267b565b9050919050565b60008190508160005260206000209050919050565b60006020601f8301049050919050565b600082821b905092915050565b6000600883026127207fffffffffffffffffffffffffffffffffffffffffffffffffffffffffffffffff826126e3565b61272a86836126e3565b95508019841693508086168417925050509392505050565b6000819050919050565b600061276761276261275d846119c2565b612742565b6119c2565b9050919050565b6000819050919050565b6127818361274c565b61279561278d8261276e565b8484546126f0565b825550505050565b600090565b6127aa61279d565b6127b5818484612778565b505050565b5b818110156127d9576127ce6000826127a2565b6001810190506127bb565b5050565b601f82111561281e576127ef816126be565b6127f8846126d3565b81016020851015612807578190505b61281b612813856126d3565b8301826127ba565b50505b505050565b600082821c905092915050565b600061284160001984600802612823565b1980831691505092915050565b600061285a8383612830565b9150826002028217905092915050565b61287382611910565b67ffffffffffffffff81111561288c5761288b611c0d565b5b6128968254611f14565b6128a18282856127dd565b600060209050601f8311600181146128d457600084156128c2578287015190505b6128cc858261284e565b865550612934565b601f1984166128e2866126be565b60005b8281101561290a578489015182556001820191506020850194506020810190506128e5565b868310156129275784890151612923601f891682612830565b8355505b6001600288020188555050505b505050505050565b600081519050919050565b600082825260208201905092915050565b60006129638261293c565b61296d8185612947565b935061297d81856020860161192c565b61298681611956565b840191505092915050565b60006080820190506129a66000830187611a57565b6129b36020830186611a57565b6129c06040830185611aed565b81810360608301526129d28184612958565b905095945050505050565b6000815190506129ec81611881565b92915050565b600060208284031215612a0857612a0761184b565b5b6000612a16848285016129dd565b91505092915050565b6000612a2a826119c2565b91507fffffffffffffffffffffffffffffffffffffffffffffffffffffffffffffffff8203612a5c57612a5b6123bf565b5b600182019050919050565b7f4e487b7100000000000000000000000000000000000000000000000000000000600052601260045260246000fd5b6000612aa1826119c2565b9150612aac836119c2565b925082612abc57612abb612a67565b5b828204905092915050565b6000612ad2826119c2565b9150612add836119c2565b925082612aed57612aec612a67565b5b828206905092915050565b7f4e487b7100000000000000000000000000000000000000000000000000000000600052603260045260246000fdfea26469706673582212200fb1a91e20b56842d0cf3cee4ceefea4b64a3bb636e5681faac4b74af5b2498f64736f6c63430008110033",
  "linkReferences": {},
  "deployedLinkReferences": {}
}