{
  "_format": "hh-sol-artifact-1",
  "contractName": "SellingEscrow",
  "sourceName": "contracts/SellingEscrow.sol",
  "abi": [
    {
      "inputs": [
        {
          "internalType": "address",
          "name": "_nftAddress",
          "type": "address"
        },
        {
          "internalType": "address",
          "name": "_oracle",
          "type": "address"
        }
      ],
      "stateMutability": "nonpayable",
      "type": "constructor"
    },
    {
      "inputs": [
        {
          "internalType": "uint256",
          "name": "",
          "type": "uint256"
        },
        {
          "internalType": "address",
          "name": "",
          "type": "address"
        }
      ],
      "name": "approval",
      "outputs": [
        {
          "internalType": "bool",
          "name": "",
          "type": "bool"
        }
      ],
      "stateMutability": "view",
      "type": "function"
    },
    {
      "inputs": [
        {
          "internalType": "uint256",
          "name": "_nftID",
          "type": "uint256"
        }
      ],
      "name": "approveSale",
      "outputs": [],
      "stateMutability": "nonpayable",
      "type": "function"
    },
    {
      "inputs": [
        {
          "internalType": "uint256",
          "name": "",
          "type": "uint256"
        }
      ],
      "name": "buyer",
      "outputs": [
        {
          "internalType": "address",
          "name": "",
          "type": "address"
        }
      ],
      "stateMutability": "view",
      "type": "function"
    },
    {
      "inputs": [
        {
          "internalType": "uint256",
          "name": "_nftID",
          "type": "uint256"
        }
      ],
      "name": "cancelSale",
      "outputs": [],
      "stateMutability": "nonpayable",
      "type": "function"
    },
    {
      "inputs": [
        {
          "internalType": "uint256",
          "name": "_nftID",
          "type": "uint256"
        }
      ],
      "name": "depositEarnest",
      "outputs": [],
      "stateMutability": "payable",
      "type": "function"
    },
    {
      "inputs": [],
      "name": "fashionToken",
      "outputs": [
        {
          "internalType": "contract FashionToken",
          "name": "",
          "type": "address"
        }
      ],
      "stateMutability": "view",
      "type": "function"
    },
    {
      "inputs": [
        {
          "internalType": "uint256",
          "name": "_nftID",
          "type": "uint256"
        }
      ],
      "name": "finalizeSale",
      "outputs": [],
      "stateMutability": "nonpayable",
      "type": "function"
    },
    {
      "inputs": [],
      "name": "getBalance",
      "outputs": [
        {
          "internalType": "uint256",
          "name": "",
          "type": "uint256"
        }
      ],
      "stateMutability": "view",
      "type": "function"
    },
    {
      "inputs": [
        {
          "internalType": "uint256",
          "name": "",
          "type": "uint256"
        }
      ],
      "name": "isListed",
      "outputs": [
        {
          "internalType": "bool",
          "name": "",
          "type": "bool"
        }
      ],
      "stateMutability": "view",
      "type": "function"
    },
    {
      "inputs": [
        {
          "internalType": "uint256",
          "name": "_nftID",
          "type": "uint256"
        },
        {
          "internalType": "uint256",
          "name": "_purchasePrice",
          "type": "uint256"
        }
      ],
      "name": "list",
      "outputs": [],
      "stateMutability": "payable",
      "type": "function"
    },
    {
      "inputs": [],
      "name": "nftAddress",
      "outputs": [
        {
          "internalType": "address",
          "name": "",
          "type": "address"
        }
      ],
      "stateMutability": "view",
      "type": "function"
    },
    {
      "inputs": [
        {
          "internalType": "uint256",
          "name": "",
          "type": "uint256"
        }
      ],
      "name": "nftSeller",
      "outputs": [
        {
          "internalType": "address",
          "name": "",
          "type": "address"
        }
      ],
      "stateMutability": "view",
      "type": "function"
    },
    {
      "inputs": [
        {
          "internalType": "address",
          "name": "",
          "type": "address"
        },
        {
          "internalType": "address",
          "name": "",
          "type": "address"
        },
        {
          "internalType": "uint256",
          "name": "",
          "type": "uint256"
        },
        {
          "internalType": "bytes",
          "name": "",
          "type": "bytes"
        }
      ],
      "name": "onERC721Received",
      "outputs": [
        {
          "internalType": "bytes4",
          "name": "",
          "type": "bytes4"
        }
      ],
      "stateMutability": "pure",
      "type": "function"
    },
    {
      "inputs": [],
      "name": "oracle",
      "outputs": [
        {
          "internalType": "address",
          "name": "",
          "type": "address"
        }
      ],
      "stateMutability": "view",
      "type": "function"
    },
    {
      "inputs": [
        {
          "internalType": "uint256",
          "name": "",
          "type": "uint256"
        }
      ],
      "name": "purchasePrice",
      "outputs": [
        {
          "internalType": "uint256",
          "name": "",
          "type": "uint256"
        }
      ],
      "stateMutability": "view",
      "type": "function"
    },
    {
      "inputs": [
        {
          "internalType": "string",
          "name": "_tokenURI",
          "type": "string"
        }
      ],
      "name": "register",
      "outputs": [],
      "stateMutability": "nonpayable",
      "type": "function"
    },
    {
      "inputs": [],
      "name": "seller",
      "outputs": [
        {
          "internalType": "address payable",
          "name": "",
          "type": "address"
        }
      ],
      "stateMutability": "view",
      "type": "function"
    },
    {
      "inputs": [
        {
          "internalType": "uint256",
          "name": "_nftID",
          "type": "uint256"
        },
        {
          "internalType": "bool",
          "name": "_delivered",
          "type": "bool"
        }
      ],
      "name": "updateDeliveryStatus",
      "outputs": [],
      "stateMutability": "nonpayable",
      "type": "function"
    },
    {
      "inputs": [
        {
          "internalType": "uint256",
          "name": "",
          "type": "uint256"
        }
      ],
      "name": "wasDelivered",
      "outputs": [
        {
          "internalType": "bool",
          "name": "",
          "type": "bool"
        }
      ],
      "stateMutability": "view",
      "type": "function"
    },
    {
      "stateMutability": "payable",
      "type": "receive"
    }
  ],
  "bytecode": "0x60806040523480156200001157600080fd5b5060405162001cd938038062001cd983398181016040528101906200003791906200016b565b80600260006101000a81548173ffffffffffffffffffffffffffffffffffffffff021916908373ffffffffffffffffffffffffffffffffffffffff160217905550816000806101000a81548173ffffffffffffffffffffffffffffffffffffffff021916908373ffffffffffffffffffffffffffffffffffffffff16021790555081600960006101000a81548173ffffffffffffffffffffffffffffffffffffffff021916908373ffffffffffffffffffffffffffffffffffffffff1602179055505050620001b2565b600080fd5b600073ffffffffffffffffffffffffffffffffffffffff82169050919050565b6000620001338262000106565b9050919050565b620001458162000126565b81146200015157600080fd5b50565b60008151905062000165816200013a565b92915050565b6000806040838503121562000185576200018462000101565b5b6000620001958582860162000154565b9250506020620001a88582860162000154565b9150509250929050565b611b1780620001c26000396000f3fe6080604052600436106101185760003560e01c806377fbc4ae116100a0578063b87ce52b11610064578063b87ce52b146103c3578063bd94b00514610400578063e740f77014610429578063f2c298be14610445578063fcce48831461046e5761011f565b806377fbc4ae146102cc5780637dc0d1d01461030957806392c30da214610334578063aa9293801461035d578063b848de35146103865761011f565b8063150b7a02116100e7578063150b7a02146101e05780634dd4acaf1461021d57806350fd73671461025a5780635bf8633a146102765780637505e299146102a15761011f565b806308551a53146101245780630c37a78d1461014f57806312065fe01461018c57806314a72feb146101b75761011f565b3661011f57005b600080fd5b34801561013057600080fd5b506101396104ab565b604051610146919061117f565b60405180910390f35b34801561015b57600080fd5b50610176600480360381019061017191906111e4565b6104d1565b604051610183919061122c565b60405180910390f35b34801561019857600080fd5b506101a16104f1565b6040516101ae9190611256565b60405180910390f35b3480156101c357600080fd5b506101de60048036038101906101d991906111e4565b6104f9565b005b3480156101ec57600080fd5b5061020760048036038101906102029190611314565b610565565b60405161021491906113d7565b60405180910390f35b34801561022957600080fd5b50610244600480360381019061023f91906111e4565b61057a565b6040516102519190611401565b60405180910390f35b610274600480360381019061026f919061141c565b6105ad565b005b34801561028257600080fd5b5061028b6107e1565b6040516102989190611401565b60405180910390f35b3480156102ad57600080fd5b506102b6610805565b6040516102c391906114bb565b60405180910390f35b3480156102d857600080fd5b506102f360048036038101906102ee91906111e4565b61082b565b6040516103009190611256565b60405180910390f35b34801561031557600080fd5b5061031e610843565b60405161032b9190611401565b60405180910390f35b34801561034057600080fd5b5061035b60048036038101906103569190611502565b610869565b005b34801561036957600080fd5b50610384600480360381019061037f91906111e4565b610928565b005b34801561039257600080fd5b506103ad60048036038101906103a89190611542565b610dc2565b6040516103ba919061122c565b60405180910390f35b3480156103cf57600080fd5b506103ea60048036038101906103e591906111e4565b610df1565b6040516103f79190611401565b60405180910390f35b34801561040c57600080fd5b50610427600480360381019061042291906111e4565b610e24565b005b610443600480360381019061043e91906111e4565b610f3c565b005b34801561045157600080fd5b5061046c600480360381019061046791906116c3565b610fe7565b005b34801561047a57600080fd5b50610495600480360381019061049091906111e4565b61111e565b6040516104a2919061122c565b60405180910390f35b600160009054906101000a900473ffffffffffffffffffffffffffffffffffffffff1681565b60076020528060005260406000206000915054906101000a900460ff1681565b600047905090565b60016008600083815260200190815260200160002060003373ffffffffffffffffffffffffffffffffffffffff1673ffffffffffffffffffffffffffffffffffffffff16815260200190815260200160002060006101000a81548160ff02191690831515021790555050565b600063150b7a0260e01b905095945050505050565b60056020528060005260406000206000915054906101000a900473ffffffffffffffffffffffffffffffffffffffff1681565b81600960009054906101000a900473ffffffffffffffffffffffffffffffffffffffff1673ffffffffffffffffffffffffffffffffffffffff166352d8a4d1826040518263ffffffff1660e01b81526004016106099190611256565b602060405180830381865afa158015610626573d6000803e3d6000fd5b505050506040513d601f19601f8201168201806040525081019061064a9190611721565b73ffffffffffffffffffffffffffffffffffffffff163373ffffffffffffffffffffffffffffffffffffffff16146106b7576040517f08c379a00000000000000000000000000000000000000000000000000000000081526004016106ae906117ab565b60405180910390fd5b60008054906101000a900473ffffffffffffffffffffffffffffffffffffffff1673ffffffffffffffffffffffffffffffffffffffff166342842e0e3330866040518463ffffffff1660e01b8152600401610714939291906117cb565b600060405180830381600087803b15801561072e57600080fd5b505af1158015610742573d6000803e3d6000fd5b5050505060016003600085815260200190815260200160002060006101000a81548160ff021916908315150217905550336006600085815260200190815260200160002060006101000a81548173ffffffffffffffffffffffffffffffffffffffff021916908373ffffffffffffffffffffffffffffffffffffffff160217905550816004600085815260200190815260200160002081905550505050565b60008054906101000a900473ffffffffffffffffffffffffffffffffffffffff1681565b600960009054906101000a900473ffffffffffffffffffffffffffffffffffffffff1681565b60046020528060005260406000206000915090505481565b600260009054906101000a900473ffffffffffffffffffffffffffffffffffffffff1681565b600260009054906101000a900473ffffffffffffffffffffffffffffffffffffffff1673ffffffffffffffffffffffffffffffffffffffff163373ffffffffffffffffffffffffffffffffffffffff16146108f9576040517f08c379a00000000000000000000000000000000000000000000000000000000081526004016108f090611874565b60405180910390fd5b806007600084815260200190815260200160002060006101000a81548160ff0219169083151502179055505050565b6007600082815260200190815260200160002060009054906101000a900460ff1661095257600080fd5b6008600082815260200190815260200160002060006005600084815260200190815260200160002060009054906101000a900473ffffffffffffffffffffffffffffffffffffffff1673ffffffffffffffffffffffffffffffffffffffff1673ffffffffffffffffffffffffffffffffffffffff16815260200190815260200160002060009054906101000a900460ff166109ec57600080fd5b6008600082815260200190815260200160002060006006600084815260200190815260200160002060009054906101000a900473ffffffffffffffffffffffffffffffffffffffff1673ffffffffffffffffffffffffffffffffffffffff1673ffffffffffffffffffffffffffffffffffffffff16815260200190815260200160002060009054906101000a900460ff16610a8657600080fd5b600860008281526020019081526020016000206000600260009054906101000a900473ffffffffffffffffffffffffffffffffffffffff1673ffffffffffffffffffffffffffffffffffffffff1673ffffffffffffffffffffffffffffffffffffffff16815260200190815260200160002060009054906101000a900460ff16610b0f57600080fd5b6004600082815260200190815260200160002054471015610b2f57600080fd5b60006003600083815260200190815260200160002060006101000a81548160ff02191690831515021790555060006006600083815260200190815260200160002060009054906101000a900473ffffffffffffffffffffffffffffffffffffffff1673ffffffffffffffffffffffffffffffffffffffff1647604051610bb4906118c5565b60006040518083038185875af1925050503d8060008114610bf1576040519150601f19603f3d011682016040523d82523d6000602084013e610bf6565b606091505b5050905080610c3a576040517f08c379a0000000000000000000000000000000000000000000000000000000008152600401610c319061194c565b60405180910390fd5b60008054906101000a900473ffffffffffffffffffffffffffffffffffffffff1673ffffffffffffffffffffffffffffffffffffffff166342842e0e306005600086815260200190815260200160002060009054906101000a900473ffffffffffffffffffffffffffffffffffffffff16856040518463ffffffff1660e01b8152600401610cca939291906117cb565b600060405180830381600087803b158015610ce457600080fd5b505af1158015610cf8573d6000803e3d6000fd5b50505050600960009054906101000a900473ffffffffffffffffffffffffffffffffffffffff1673ffffffffffffffffffffffffffffffffffffffff16631af58d32836005600086815260200190815260200160002060009054906101000a900473ffffffffffffffffffffffffffffffffffffffff166040518363ffffffff1660e01b8152600401610d8c92919061196c565b600060405180830381600087803b158015610da657600080fd5b505af1158015610dba573d6000803e3d6000fd5b505050505050565b60086020528160005260406000206020528060005260406000206000915091509054906101000a900460ff1681565b60066020528060005260406000206000915054906101000a900473ffffffffffffffffffffffffffffffffffffffff1681565b600015156007600083815260200190815260200160002060009054906101000a900460ff16151503610ecf576005600082815260200190815260200160002060009054906101000a900473ffffffffffffffffffffffffffffffffffffffff1673ffffffffffffffffffffffffffffffffffffffff166108fc479081150290604051600060405180830381858888f19350505050158015610ec9573d6000803e3d6000fd5b50610f39565b600160009054906101000a900473ffffffffffffffffffffffffffffffffffffffff1673ffffffffffffffffffffffffffffffffffffffff166108fc479081150290604051600060405180830381858888f19350505050158015610f37573d6000803e3d6000fd5b505b50565b6004600082815260200190815260200160002054341015610f92576040517f08c379a0000000000000000000000000000000000000000000000000000000008152600401610f89906119e1565b60405180910390fd5b336005600083815260200190815260200160002060006101000a81548173ffffffffffffffffffffffffffffffffffffffff021916908373ffffffffffffffffffffffffffffffffffffffff16021790555050565b6000600960009054906101000a900473ffffffffffffffffffffffffffffffffffffffff1673ffffffffffffffffffffffffffffffffffffffff16631c351a9d83336040518363ffffffff1660e01b8152600401611046929190611a6f565b6020604051808303816000875af1158015611065573d6000803e3d6000fd5b505050506040513d601f19601f820116820180604052508101906110899190611ab4565b905060008054906101000a900473ffffffffffffffffffffffffffffffffffffffff1673ffffffffffffffffffffffffffffffffffffffff166342842e0e3033846040518463ffffffff1660e01b81526004016110e8939291906117cb565b600060405180830381600087803b15801561110257600080fd5b505af1158015611116573d6000803e3d6000fd5b505050505050565b60036020528060005260406000206000915054906101000a900460ff1681565b600073ffffffffffffffffffffffffffffffffffffffff82169050919050565b60006111698261113e565b9050919050565b6111798161115e565b82525050565b60006020820190506111946000830184611170565b92915050565b6000604051905090565b600080fd5b600080fd5b6000819050919050565b6111c1816111ae565b81146111cc57600080fd5b50565b6000813590506111de816111b8565b92915050565b6000602082840312156111fa576111f96111a4565b5b6000611208848285016111cf565b91505092915050565b60008115159050919050565b61122681611211565b82525050565b6000602082019050611241600083018461121d565b92915050565b611250816111ae565b82525050565b600060208201905061126b6000830184611247565b92915050565b600061127c8261113e565b9050919050565b61128c81611271565b811461129757600080fd5b50565b6000813590506112a981611283565b92915050565b600080fd5b600080fd5b600080fd5b60008083601f8401126112d4576112d36112af565b5b8235905067ffffffffffffffff8111156112f1576112f06112b4565b5b60208301915083600182028301111561130d5761130c6112b9565b5b9250929050565b6000806000806000608086880312156113305761132f6111a4565b5b600061133e8882890161129a565b955050602061134f8882890161129a565b9450506040611360888289016111cf565b935050606086013567ffffffffffffffff811115611381576113806111a9565b5b61138d888289016112be565b92509250509295509295909350565b60007fffffffff0000000000000000000000000000000000000000000000000000000082169050919050565b6113d18161139c565b82525050565b60006020820190506113ec60008301846113c8565b92915050565b6113fb81611271565b82525050565b600060208201905061141660008301846113f2565b92915050565b60008060408385031215611433576114326111a4565b5b6000611441858286016111cf565b9250506020611452858286016111cf565b9150509250929050565b6000819050919050565b600061148161147c6114778461113e565b61145c565b61113e565b9050919050565b600061149382611466565b9050919050565b60006114a582611488565b9050919050565b6114b58161149a565b82525050565b60006020820190506114d060008301846114ac565b92915050565b6114df81611211565b81146114ea57600080fd5b50565b6000813590506114fc816114d6565b92915050565b60008060408385031215611519576115186111a4565b5b6000611527858286016111cf565b9250506020611538858286016114ed565b9150509250929050565b60008060408385031215611559576115586111a4565b5b6000611567858286016111cf565b92505060206115788582860161129a565b9150509250929050565b600080fd5b6000601f19601f8301169050919050565b7f4e487b7100000000000000000000000000000000000000000000000000000000600052604160045260246000fd5b6115d082611587565b810181811067ffffffffffffffff821117156115ef576115ee611598565b5b80604052505050565b600061160261119a565b905061160e82826115c7565b919050565b600067ffffffffffffffff82111561162e5761162d611598565b5b61163782611587565b9050602081019050919050565b82818337600083830152505050565b600061166661166184611613565b6115f8565b90508281526020810184848401111561168257611681611582565b5b61168d848285611644565b509392505050565b600082601f8301126116aa576116a96112af565b5b81356116ba848260208601611653565b91505092915050565b6000602082840312156116d9576116d86111a4565b5b600082013567ffffffffffffffff8111156116f7576116f66111a9565b5b61170384828501611695565b91505092915050565b60008151905061171b81611283565b92915050565b600060208284031215611737576117366111a4565b5b60006117458482850161170c565b91505092915050565b600082825260208201905092915050565b7f4f6e6c792073656c6c65722063616e2063616c6c2074686973206d6574686f64600082015250565b600061179560208361174e565b91506117a08261175f565b602082019050919050565b600060208201905081810360008301526117c481611788565b9050919050565b60006060820190506117e060008301866113f2565b6117ed60208301856113f2565b6117fa6040830184611247565b949350505050565b7f4f6e6c79206f7261636c6520696e73706563746f722063616e2063616c6c207460008201527f686973206d6574686f6400000000000000000000000000000000000000000000602082015250565b600061185e602a8361174e565b915061186982611802565b604082019050919050565b6000602082019050818103600083015261188d81611851565b9050919050565b600081905092915050565b50565b60006118af600083611894565b91506118ba8261189f565b600082019050919050565b60006118d0826118a2565b9150819050919050565b7f556e7375636365737366756c207472616e73666572206f662066756e6473207460008201527f6f207468652073656c6c65722e00000000000000000000000000000000000000602082015250565b6000611936602d8361174e565b9150611941826118da565b604082019050919050565b6000602082019050818103600083015261196581611929565b9050919050565b60006040820190506119816000830185611247565b61198e60208301846113f2565b9392505050565b7f496e73756666696369656e742066756e64732100000000000000000000000000600082015250565b60006119cb60138361174e565b91506119d682611995565b602082019050919050565b600060208201905081810360008301526119fa816119be565b9050919050565b600081519050919050565b60005b83811015611a2a578082015181840152602081019050611a0f565b60008484015250505050565b6000611a4182611a01565b611a4b818561174e565b9350611a5b818560208601611a0c565b611a6481611587565b840191505092915050565b60006040820190508181036000830152611a898185611a36565b9050611a9860208301846113f2565b9392505050565b600081519050611aae816111b8565b92915050565b600060208284031215611aca57611ac96111a4565b5b6000611ad884828501611a9f565b9150509291505056fea26469706673582212206e2bfb859ef16c32684c21c684c986bc35bd356fdce4fef001f5c98a72789c4064736f6c63430008110033",
  "linkReferences": {},
  "deployedLinkReferences": {}
}